{
	"customERC20-bridge-example/contracts/ERC20BridgeNativeChain.sol": {
		"ERC20BridgeNativeChain": {
			"abi": [
				{
					"inputs": [
						{
							"internalType": "contract IPolygonZkEVMBridge",
							"name": "_polygonZkEVMBridge",
							"type": "address"
						},
						{
							"internalType": "address",
							"name": "_counterpartContract",
							"type": "address"
						},
						{
							"internalType": "uint32",
							"name": "_counterpartNetwork",
							"type": "uint32"
						},
						{
							"internalType": "contract IERC20",
							"name": "_token",
							"type": "address"
						}
					],
					"stateMutability": "nonpayable",
					"type": "constructor"
				},
				{
					"inputs": [
						{
							"internalType": "address",
							"name": "target",
							"type": "address"
						}
					],
					"name": "AddressEmptyCode",
					"type": "error"
				},
				{
					"inputs": [
						{
							"internalType": "address",
							"name": "account",
							"type": "address"
						}
					],
					"name": "AddressInsufficientBalance",
					"type": "error"
				},
				{
					"inputs": [],
					"name": "FailedInnerCall",
					"type": "error"
				},
				{
					"inputs": [
						{
							"internalType": "address",
							"name": "token",
							"type": "address"
						}
					],
					"name": "SafeERC20FailedOperation",
					"type": "error"
				},
				{
					"anonymous": false,
					"inputs": [
						{
							"indexed": false,
							"internalType": "address",
							"name": "destinationAddress",
							"type": "address"
						},
						{
							"indexed": false,
							"internalType": "uint256",
							"name": "amount",
							"type": "uint256"
						}
					],
					"name": "BridgeTokens",
					"type": "event"
				},
				{
					"anonymous": false,
					"inputs": [
						{
							"indexed": false,
							"internalType": "address",
							"name": "destinationAddress",
							"type": "address"
						},
						{
							"indexed": false,
							"internalType": "uint256",
							"name": "amount",
							"type": "uint256"
						}
					],
					"name": "ClaimTokens",
					"type": "event"
				},
				{
					"inputs": [
						{
							"internalType": "address",
							"name": "destinationAddress",
							"type": "address"
						},
						{
							"internalType": "uint256",
							"name": "amount",
							"type": "uint256"
						},
						{
							"internalType": "bool",
							"name": "forceUpdateGlobalExitRoot",
							"type": "bool"
						}
					],
					"name": "bridgeToken",
					"outputs": [],
					"stateMutability": "nonpayable",
					"type": "function"
				},
				{
					"inputs": [],
					"name": "counterpartContract",
					"outputs": [
						{
							"internalType": "address",
							"name": "",
							"type": "address"
						}
					],
					"stateMutability": "view",
					"type": "function"
				},
				{
					"inputs": [],
					"name": "counterpartNetwork",
					"outputs": [
						{
							"internalType": "uint32",
							"name": "",
							"type": "uint32"
						}
					],
					"stateMutability": "view",
					"type": "function"
				},
				{
					"inputs": [
						{
							"internalType": "address",
							"name": "originAddress",
							"type": "address"
						},
						{
							"internalType": "uint32",
							"name": "originNetwork",
							"type": "uint32"
						},
						{
							"internalType": "bytes",
							"name": "data",
							"type": "bytes"
						}
					],
					"name": "onMessageReceived",
					"outputs": [],
					"stateMutability": "payable",
					"type": "function"
				},
				{
					"inputs": [],
					"name": "polygonZkEVMBridge",
					"outputs": [
						{
							"internalType": "contract IPolygonZkEVMBridge",
							"name": "",
							"type": "address"
						}
					],
					"stateMutability": "view",
					"type": "function"
				},
				{
					"inputs": [],
					"name": "token",
					"outputs": [
						{
							"internalType": "contract IERC20",
							"name": "",
							"type": "address"
						}
					],
					"stateMutability": "view",
					"type": "function"
				}
			],
			"devdoc": {
				"errors": {
					"AddressEmptyCode(address)": [
						{
							"details": "There's no code at `target` (it is not a contract)."
						}
					],
					"AddressInsufficientBalance(address)": [
						{
							"details": "The ETH balance of the account is not enough to perform the operation."
						}
					],
					"FailedInnerCall()": [
						{
							"details": "A call to an address target failed. The target may have reverted."
						}
					],
					"SafeERC20FailedOperation(address)": [
						{
							"details": "An operation with an ERC20 token failed."
						}
					]
				},
				"events": {
					"BridgeTokens(address,uint256)": {
						"details": "Emitted when bridge tokens to the counterpart network"
					},
					"ClaimTokens(address,uint256)": {
						"details": "Emitted when claim tokens from the counterpart network"
					}
				},
				"kind": "dev",
				"methods": {
					"bridgeToken(address,uint256,bool)": {
						"params": {
							"amount": "Token amount",
							"destinationAddress": "Address destination that will receive the tokens on the other network",
							"forceUpdateGlobalExitRoot": "Indicates if the global exit root is updated or not"
						}
					},
					"constructor": {
						"params": {
							"_counterpartContract": "Couterpart contract",
							"_counterpartNetwork": "Couterpart network",
							"_polygonZkEVMBridge": "Polygon zkevm bridge address",
							"_token": "Token address"
						}
					},
					"onMessageReceived(address,uint32,bytes)": {
						"params": {
							"data": "Abi encoded metadata",
							"originAddress": "Origin address that the message was sended",
							"originNetwork": "Origin network that the message was sended ( not usefull for this contract)"
						}
					}
				},
				"version": 1
			},
			"evm": {
				"assembly": "    /* \"customERC20-bridge-example/contracts/ERC20BridgeNativeChain.sol\":394:1724  contract ERC20BridgeNativeChain is PolygonERC20BridgeBase {... */\n  mstore(0x40, 0x0100)\n    /* \"customERC20-bridge-example/contracts/ERC20BridgeNativeChain.sol\":770:1110  constructor(... */\n  callvalue\n  dup1\n  iszero\n  tag_1\n  jumpi\n  0x00\n  dup1\n  revert\ntag_1:\n  pop\n  mload(0x40)\n  sub(codesize, bytecodeSize)\n  dup1\n  bytecodeSize\n  dup4\n  codecopy\n  dup2\n  dup2\n  add\n  0x40\n  mstore\n  dup2\n  add\n  swap1\n  tag_2\n  swap2\n  swap1\n  tag_3\n  jump\t// in\ntag_2:\n    /* \"customERC20-bridge-example/contracts/ERC20BridgeNativeChain.sol\":978:997  _polygonZkEVMBridge */\n  dup4\n    /* \"customERC20-bridge-example/contracts/ERC20BridgeNativeChain.sol\":1011:1031  _counterpartContract */\n  dup4\n    /* \"customERC20-bridge-example/contracts/ERC20BridgeNativeChain.sol\":1045:1064  _counterpartNetwork */\n  dup4\n    /* \"customERC20-bridge-example/contracts/base/PolygonERC20BridgeBase.sol\":742:761  _polygonZkEVMBridge */\n  dup3\n    /* \"customERC20-bridge-example/contracts/base/PolygonERC20BridgeBase.sol\":775:795  _counterpartContract */\n  dup3\n    /* \"customERC20-bridge-example/contracts/base/PolygonERC20BridgeBase.sol\":809:828  _counterpartNetwork */\n  dup3\n    /* \"customERC20-bridge-example/contracts/base/PolygonBridgeBase.sol\":1277:1296  _polygonZkEVMBridge */\n  dup3\n    /* \"customERC20-bridge-example/contracts/base/PolygonBridgeBase.sol\":1256:1296  polygonZkEVMBridge = _polygonZkEVMBridge */\n  0xffffffffffffffffffffffffffffffffffffffff\n  and\n  0x80\n  dup2\n  0xffffffffffffffffffffffffffffffffffffffff\n  and\n  dup2\n  mstore\n  pop\n  pop\n    /* \"customERC20-bridge-example/contracts/base/PolygonBridgeBase.sol\":1328:1348  _counterpartContract */\n  dup2\n    /* \"customERC20-bridge-example/contracts/base/PolygonBridgeBase.sol\":1306:1348  counterpartContract = _counterpartContract */\n  0xffffffffffffffffffffffffffffffffffffffff\n  and\n  0xa0\n  dup2\n  0xffffffffffffffffffffffffffffffffffffffff\n  and\n  dup2\n  mstore\n  pop\n  pop\n    /* \"customERC20-bridge-example/contracts/base/PolygonBridgeBase.sol\":1379:1398  _counterpartNetwork */\n  dup1\n    /* \"customERC20-bridge-example/contracts/base/PolygonBridgeBase.sol\":1358:1398  counterpartNetwork = _counterpartNetwork */\n  0xffffffff\n  and\n  0xc0\n  dup2\n  0xffffffff\n  and\n  dup2\n  mstore\n  pop\n  pop\n    /* \"customERC20-bridge-example/contracts/base/PolygonBridgeBase.sol\":1105:1405  constructor(... */\n  pop\n  pop\n  pop\n    /* \"customERC20-bridge-example/contracts/base/PolygonERC20BridgeBase.sol\":562:845  constructor(... */\n  pop\n  pop\n  pop\n    /* \"customERC20-bridge-example/contracts/ERC20BridgeNativeChain.sol\":1097:1103  _token */\n  dup1\n    /* \"customERC20-bridge-example/contracts/ERC20BridgeNativeChain.sol\":1089:1103  token = _token */\n  0xffffffffffffffffffffffffffffffffffffffff\n  and\n  0xe0\n  dup2\n  0xffffffffffffffffffffffffffffffffffffffff\n  and\n  dup2\n  mstore\n  pop\n  pop\n    /* \"customERC20-bridge-example/contracts/ERC20BridgeNativeChain.sol\":770:1110  constructor(... */\n  pop\n  pop\n  pop\n  pop\n    /* \"customERC20-bridge-example/contracts/ERC20BridgeNativeChain.sol\":394:1724  contract ERC20BridgeNativeChain is PolygonERC20BridgeBase {... */\n  jump(tag_10)\n    /* \"#utility.yul\":88:205   */\ntag_12:\n    /* \"#utility.yul\":197:198   */\n  0x00\n    /* \"#utility.yul\":194:195   */\n  dup1\n    /* \"#utility.yul\":187:199   */\n  revert\n    /* \"#utility.yul\":334:460   */\ntag_14:\n    /* \"#utility.yul\":371:378   */\n  0x00\n    /* \"#utility.yul\":411:453   */\n  0xffffffffffffffffffffffffffffffffffffffff\n    /* \"#utility.yul\":404:409   */\n  dup3\n    /* \"#utility.yul\":400:454   */\n  and\n    /* \"#utility.yul\":389:454   */\n  swap1\n  pop\n    /* \"#utility.yul\":334:460   */\n  swap2\n  swap1\n  pop\n  jump\t// out\n    /* \"#utility.yul\":466:562   */\ntag_15:\n    /* \"#utility.yul\":503:510   */\n  0x00\n    /* \"#utility.yul\":532:556   */\n  tag_33\n    /* \"#utility.yul\":550:555   */\n  dup3\n    /* \"#utility.yul\":532:556   */\n  tag_14\n  jump\t// in\ntag_33:\n    /* \"#utility.yul\":521:556   */\n  swap1\n  pop\n    /* \"#utility.yul\":466:562   */\n  swap2\n  swap1\n  pop\n  jump\t// out\n    /* \"#utility.yul\":568:692   */\ntag_16:\n    /* \"#utility.yul\":633:640   */\n  0x00\n    /* \"#utility.yul\":662:686   */\n  tag_35\n    /* \"#utility.yul\":680:685   */\n  dup3\n    /* \"#utility.yul\":662:686   */\n  tag_15\n  jump\t// in\ntag_35:\n    /* \"#utility.yul\":651:686   */\n  swap1\n  pop\n    /* \"#utility.yul\":568:692   */\n  swap2\n  swap1\n  pop\n  jump\t// out\n    /* \"#utility.yul\":698:876   */\ntag_17:\n    /* \"#utility.yul\":799:851   */\n  tag_37\n    /* \"#utility.yul\":845:850   */\n  dup2\n    /* \"#utility.yul\":799:851   */\n  tag_16\n  jump\t// in\ntag_37:\n    /* \"#utility.yul\":792:797   */\n  dup2\n    /* \"#utility.yul\":789:852   */\n  eq\n    /* \"#utility.yul\":779:870   */\n  tag_38\n  jumpi\n    /* \"#utility.yul\":866:867   */\n  0x00\n    /* \"#utility.yul\":863:864   */\n  dup1\n    /* \"#utility.yul\":856:868   */\n  revert\n    /* \"#utility.yul\":779:870   */\ntag_38:\n    /* \"#utility.yul\":698:876   */\n  pop\n  jump\t// out\n    /* \"#utility.yul\":882:1081   */\ntag_18:\n    /* \"#utility.yul\":967:972   */\n  0x00\n    /* \"#utility.yul\":998:1004   */\n  dup2\n    /* \"#utility.yul\":992:1005   */\n  mload\n    /* \"#utility.yul\":983:1005   */\n  swap1\n  pop\n    /* \"#utility.yul\":1014:1075   */\n  tag_40\n    /* \"#utility.yul\":1069:1074   */\n  dup2\n    /* \"#utility.yul\":1014:1075   */\n  tag_17\n  jump\t// in\ntag_40:\n    /* \"#utility.yul\":882:1081   */\n  swap3\n  swap2\n  pop\n  pop\n  jump\t// out\n    /* \"#utility.yul\":1087:1209   */\ntag_19:\n    /* \"#utility.yul\":1160:1184   */\n  tag_42\n    /* \"#utility.yul\":1178:1183   */\n  dup2\n    /* \"#utility.yul\":1160:1184   */\n  tag_15\n  jump\t// in\ntag_42:\n    /* \"#utility.yul\":1153:1158   */\n  dup2\n    /* \"#utility.yul\":1150:1185   */\n  eq\n    /* \"#utility.yul\":1140:1203   */\n  tag_43\n  jumpi\n    /* \"#utility.yul\":1199:1200   */\n  0x00\n    /* \"#utility.yul\":1196:1197   */\n  dup1\n    /* \"#utility.yul\":1189:1201   */\n  revert\n    /* \"#utility.yul\":1140:1203   */\ntag_43:\n    /* \"#utility.yul\":1087:1209   */\n  pop\n  jump\t// out\n    /* \"#utility.yul\":1215:1358   */\ntag_20:\n    /* \"#utility.yul\":1272:1277   */\n  0x00\n    /* \"#utility.yul\":1303:1309   */\n  dup2\n    /* \"#utility.yul\":1297:1310   */\n  mload\n    /* \"#utility.yul\":1288:1310   */\n  swap1\n  pop\n    /* \"#utility.yul\":1319:1352   */\n  tag_45\n    /* \"#utility.yul\":1346:1351   */\n  dup2\n    /* \"#utility.yul\":1319:1352   */\n  tag_19\n  jump\t// in\ntag_45:\n    /* \"#utility.yul\":1215:1358   */\n  swap3\n  swap2\n  pop\n  pop\n  jump\t// out\n    /* \"#utility.yul\":1364:1457   */\ntag_21:\n    /* \"#utility.yul\":1400:1407   */\n  0x00\n    /* \"#utility.yul\":1440:1450   */\n  0xffffffff\n    /* \"#utility.yul\":1433:1438   */\n  dup3\n    /* \"#utility.yul\":1429:1451   */\n  and\n    /* \"#utility.yul\":1418:1451   */\n  swap1\n  pop\n    /* \"#utility.yul\":1364:1457   */\n  swap2\n  swap1\n  pop\n  jump\t// out\n    /* \"#utility.yul\":1463:1583   */\ntag_22:\n    /* \"#utility.yul\":1535:1558   */\n  tag_48\n    /* \"#utility.yul\":1552:1557   */\n  dup2\n    /* \"#utility.yul\":1535:1558   */\n  tag_21\n  jump\t// in\ntag_48:\n    /* \"#utility.yul\":1528:1533   */\n  dup2\n    /* \"#utility.yul\":1525:1559   */\n  eq\n    /* \"#utility.yul\":1515:1577   */\n  tag_49\n  jumpi\n    /* \"#utility.yul\":1573:1574   */\n  0x00\n    /* \"#utility.yul\":1570:1571   */\n  dup1\n    /* \"#utility.yul\":1563:1575   */\n  revert\n    /* \"#utility.yul\":1515:1577   */\ntag_49:\n    /* \"#utility.yul\":1463:1583   */\n  pop\n  jump\t// out\n    /* \"#utility.yul\":1589:1730   */\ntag_23:\n    /* \"#utility.yul\":1645:1650   */\n  0x00\n    /* \"#utility.yul\":1676:1682   */\n  dup2\n    /* \"#utility.yul\":1670:1683   */\n  mload\n    /* \"#utility.yul\":1661:1683   */\n  swap1\n  pop\n    /* \"#utility.yul\":1692:1724   */\n  tag_51\n    /* \"#utility.yul\":1718:1723   */\n  dup2\n    /* \"#utility.yul\":1692:1724   */\n  tag_22\n  jump\t// in\ntag_51:\n    /* \"#utility.yul\":1589:1730   */\n  swap3\n  swap2\n  pop\n  pop\n  jump\t// out\n    /* \"#utility.yul\":1736:1845   */\ntag_24:\n    /* \"#utility.yul\":1786:1793   */\n  0x00\n    /* \"#utility.yul\":1815:1839   */\n  tag_53\n    /* \"#utility.yul\":1833:1838   */\n  dup3\n    /* \"#utility.yul\":1815:1839   */\n  tag_15\n  jump\t// in\ntag_53:\n    /* \"#utility.yul\":1804:1839   */\n  swap1\n  pop\n    /* \"#utility.yul\":1736:1845   */\n  swap2\n  swap1\n  pop\n  jump\t// out\n    /* \"#utility.yul\":1851:1999   */\ntag_25:\n    /* \"#utility.yul\":1937:1974   */\n  tag_55\n    /* \"#utility.yul\":1968:1973   */\n  dup2\n    /* \"#utility.yul\":1937:1974   */\n  tag_24\n  jump\t// in\ntag_55:\n    /* \"#utility.yul\":1930:1935   */\n  dup2\n    /* \"#utility.yul\":1927:1975   */\n  eq\n    /* \"#utility.yul\":1917:1993   */\n  tag_56\n  jumpi\n    /* \"#utility.yul\":1989:1990   */\n  0x00\n    /* \"#utility.yul\":1986:1987   */\n  dup1\n    /* \"#utility.yul\":1979:1991   */\n  revert\n    /* \"#utility.yul\":1917:1993   */\ntag_56:\n    /* \"#utility.yul\":1851:1999   */\n  pop\n  jump\t// out\n    /* \"#utility.yul\":2005:2174   */\ntag_26:\n    /* \"#utility.yul\":2075:2080   */\n  0x00\n    /* \"#utility.yul\":2106:2112   */\n  dup2\n    /* \"#utility.yul\":2100:2113   */\n  mload\n    /* \"#utility.yul\":2091:2113   */\n  swap1\n  pop\n    /* \"#utility.yul\":2122:2168   */\n  tag_58\n    /* \"#utility.yul\":2162:2167   */\n  dup2\n    /* \"#utility.yul\":2122:2168   */\n  tag_25\n  jump\t// in\ntag_58:\n    /* \"#utility.yul\":2005:2174   */\n  swap3\n  swap2\n  pop\n  pop\n  jump\t// out\n    /* \"#utility.yul\":2180:3080   */\ntag_3:\n    /* \"#utility.yul\":2317:2323   */\n  0x00\n    /* \"#utility.yul\":2325:2331   */\n  dup1\n    /* \"#utility.yul\":2333:2339   */\n  0x00\n    /* \"#utility.yul\":2341:2347   */\n  dup1\n    /* \"#utility.yul\":2390:2393   */\n  0x80\n    /* \"#utility.yul\":2378:2387   */\n  dup6\n    /* \"#utility.yul\":2369:2376   */\n  dup8\n    /* \"#utility.yul\":2365:2388   */\n  sub\n    /* \"#utility.yul\":2361:2394   */\n  slt\n    /* \"#utility.yul\":2358:2478   */\n  iszero\n  tag_60\n  jumpi\n    /* \"#utility.yul\":2397:2476   */\n  tag_61\n  tag_12\n  jump\t// in\ntag_61:\n    /* \"#utility.yul\":2358:2478   */\ntag_60:\n    /* \"#utility.yul\":2517:2518   */\n  0x00\n    /* \"#utility.yul\":2542:2634   */\n  tag_62\n    /* \"#utility.yul\":2626:2633   */\n  dup8\n    /* \"#utility.yul\":2617:2623   */\n  dup3\n    /* \"#utility.yul\":2606:2615   */\n  dup9\n    /* \"#utility.yul\":2602:2624   */\n  add\n    /* \"#utility.yul\":2542:2634   */\n  tag_18\n  jump\t// in\ntag_62:\n    /* \"#utility.yul\":2532:2634   */\n  swap5\n  pop\n    /* \"#utility.yul\":2488:2644   */\n  pop\n    /* \"#utility.yul\":2683:2685   */\n  0x20\n    /* \"#utility.yul\":2709:2773   */\n  tag_63\n    /* \"#utility.yul\":2765:2772   */\n  dup8\n    /* \"#utility.yul\":2756:2762   */\n  dup3\n    /* \"#utility.yul\":2745:2754   */\n  dup9\n    /* \"#utility.yul\":2741:2763   */\n  add\n    /* \"#utility.yul\":2709:2773   */\n  tag_20\n  jump\t// in\ntag_63:\n    /* \"#utility.yul\":2699:2773   */\n  swap4\n  pop\n    /* \"#utility.yul\":2654:2783   */\n  pop\n    /* \"#utility.yul\":2822:2824   */\n  0x40\n    /* \"#utility.yul\":2848:2911   */\n  tag_64\n    /* \"#utility.yul\":2903:2910   */\n  dup8\n    /* \"#utility.yul\":2894:2900   */\n  dup3\n    /* \"#utility.yul\":2883:2892   */\n  dup9\n    /* \"#utility.yul\":2879:2901   */\n  add\n    /* \"#utility.yul\":2848:2911   */\n  tag_23\n  jump\t// in\ntag_64:\n    /* \"#utility.yul\":2838:2911   */\n  swap3\n  pop\n    /* \"#utility.yul\":2793:2921   */\n  pop\n    /* \"#utility.yul\":2960:2962   */\n  0x60\n    /* \"#utility.yul\":2986:3063   */\n  tag_65\n    /* \"#utility.yul\":3055:3062   */\n  dup8\n    /* \"#utility.yul\":3046:3052   */\n  dup3\n    /* \"#utility.yul\":3035:3044   */\n  dup9\n    /* \"#utility.yul\":3031:3053   */\n  add\n    /* \"#utility.yul\":2986:3063   */\n  tag_26\n  jump\t// in\ntag_65:\n    /* \"#utility.yul\":2976:3063   */\n  swap2\n  pop\n    /* \"#utility.yul\":2931:3073   */\n  pop\n    /* \"#utility.yul\":2180:3080   */\n  swap3\n  swap6\n  swap2\n  swap5\n  pop\n  swap3\n  pop\n  jump\t// out\n    /* \"customERC20-bridge-example/contracts/ERC20BridgeNativeChain.sol\":394:1724  contract ERC20BridgeNativeChain is PolygonERC20BridgeBase {... */\ntag_10:\n  mload(0x80)\n  mload(0xa0)\n  mload(0xc0)\n  mload(0xe0)\n  codecopy(0x00, dataOffset(sub_0), dataSize(sub_0))\n  0x00\n  assignImmutable(\"0x5ccf7c044a80e90d263c207af688291013371913674e58646df8e464913dcab2\")\n  0x00\n  assignImmutable(\"0xcf40194b71458726eaa3c48678aca3ea2155d4b23d487dbc1366961bbd83fe8b\")\n  0x00\n  assignImmutable(\"0xc54c5452b104751fde6e79369f1e7835722fc73c62bb7947ed8a0846a81f48b5\")\n  0x00\n  assignImmutable(\"0xd6a13c6c81cb9ab3ef21d363d1d3ab5a69d984268d2de28eba50c7b4b75cb8d9\")\n  return(0x00, dataSize(sub_0))\nstop\n\nsub_0: assembly {\n        /* \"customERC20-bridge-example/contracts/ERC20BridgeNativeChain.sol\":394:1724  contract ERC20BridgeNativeChain is PolygonERC20BridgeBase {... */\n      mstore(0x40, 0x80)\n      jumpi(tag_1, lt(calldatasize, 0x04))\n      shr(0xe0, calldataload(0x00))\n      dup1\n      0x03bdcfc9\n      eq\n      tag_2\n      jumpi\n      dup1\n      0x1806b5f2\n      eq\n      tag_3\n      jumpi\n      dup1\n      0x40cf5e81\n      eq\n      tag_4\n      jumpi\n      dup1\n      0x5d43792c\n      eq\n      tag_5\n      jumpi\n      dup1\n      0xb0138132\n      eq\n      tag_6\n      jumpi\n      dup1\n      0xfc0c546a\n      eq\n      tag_7\n      jumpi\n    tag_1:\n      0x00\n      dup1\n      revert\n        /* \"customERC20-bridge-example/contracts/base/PolygonERC20BridgeBase.sol\":1606:2057  function bridgeToken(... */\n    tag_2:\n      callvalue\n      dup1\n      iszero\n      tag_8\n      jumpi\n      0x00\n      dup1\n      revert\n    tag_8:\n      pop\n      tag_9\n      0x04\n      dup1\n      calldatasize\n      sub\n      dup2\n      add\n      swap1\n      tag_10\n      swap2\n      swap1\n      tag_11\n      jump\t// in\n    tag_10:\n      tag_12\n      jump\t// in\n    tag_9:\n      stop\n        /* \"customERC20-bridge-example/contracts/base/PolygonBridgeBase.sol\":2244:2920  function onMessageReceived(... */\n    tag_3:\n      tag_13\n      0x04\n      dup1\n      calldatasize\n      sub\n      dup2\n      add\n      swap1\n      tag_14\n      swap2\n      swap1\n      tag_15\n      jump\t// in\n    tag_14:\n      tag_16\n      jump\t// in\n    tag_13:\n      stop\n        /* \"customERC20-bridge-example/contracts/base/PolygonBridgeBase.sol\":791:835  address public immutable counterpartContract */\n    tag_4:\n      callvalue\n      dup1\n      iszero\n      tag_17\n      jumpi\n      0x00\n      dup1\n      revert\n    tag_17:\n      pop\n      tag_18\n      tag_19\n      jump\t// in\n    tag_18:\n      mload(0x40)\n      tag_20\n      swap2\n      swap1\n      tag_21\n      jump\t// in\n    tag_20:\n      mload(0x40)\n      dup1\n      swap2\n      sub\n      swap1\n      return\n        /* \"customERC20-bridge-example/contracts/base/PolygonBridgeBase.sol\":604:659  IPolygonZkEVMBridge public immutable polygonZkEVMBridge */\n    tag_5:\n      callvalue\n      dup1\n      iszero\n      tag_22\n      jumpi\n      0x00\n      dup1\n      revert\n    tag_22:\n      pop\n      tag_23\n      tag_24\n      jump\t// in\n    tag_23:\n      mload(0x40)\n      tag_25\n      swap2\n      swap1\n      tag_26\n      jump\t// in\n    tag_25:\n      mload(0x40)\n      dup1\n      swap2\n      sub\n      swap1\n      return\n        /* \"customERC20-bridge-example/contracts/base/PolygonBridgeBase.sol\":869:911  uint32 public immutable counterpartNetwork */\n    tag_6:\n      callvalue\n      dup1\n      iszero\n      tag_27\n      jumpi\n      0x00\n      dup1\n      revert\n    tag_27:\n      pop\n      tag_28\n      tag_29\n      jump\t// in\n    tag_28:\n      mload(0x40)\n      tag_30\n      swap2\n      swap1\n      tag_31\n      jump\t// in\n    tag_30:\n      mload(0x40)\n      dup1\n      swap2\n      sub\n      swap1\n      return\n        /* \"customERC20-bridge-example/contracts/ERC20BridgeNativeChain.sol\":512:541  IERC20 public immutable token */\n    tag_7:\n      callvalue\n      dup1\n      iszero\n      tag_32\n      jumpi\n      0x00\n      dup1\n      revert\n    tag_32:\n      pop\n      tag_33\n      tag_34\n      jump\t// in\n    tag_33:\n      mload(0x40)\n      tag_35\n      swap2\n      swap1\n      tag_36\n      jump\t// in\n    tag_35:\n      mload(0x40)\n      dup1\n      swap2\n      sub\n      swap1\n      return\n        /* \"customERC20-bridge-example/contracts/base/PolygonERC20BridgeBase.sol\":1606:2057  function bridgeToken(... */\n    tag_12:\n        /* \"customERC20-bridge-example/contracts/base/PolygonERC20BridgeBase.sol\":1752:1774  _receiveTokens(amount) */\n      tag_38\n        /* \"customERC20-bridge-example/contracts/base/PolygonERC20BridgeBase.sol\":1767:1773  amount */\n      dup3\n        /* \"customERC20-bridge-example/contracts/base/PolygonERC20BridgeBase.sol\":1752:1766  _receiveTokens */\n      tag_39\n        /* \"customERC20-bridge-example/contracts/base/PolygonERC20BridgeBase.sol\":1752:1774  _receiveTokens(amount) */\n      jump\t// in\n    tag_38:\n        /* \"customERC20-bridge-example/contracts/base/PolygonERC20BridgeBase.sol\":1816:1840  bytes memory messageData */\n      0x00\n        /* \"customERC20-bridge-example/contracts/base/PolygonERC20BridgeBase.sol\":1854:1872  destinationAddress */\n      dup4\n        /* \"customERC20-bridge-example/contracts/base/PolygonERC20BridgeBase.sol\":1874:1880  amount */\n      dup4\n        /* \"customERC20-bridge-example/contracts/base/PolygonERC20BridgeBase.sol\":1843:1881  abi.encode(destinationAddress, amount) */\n      add(0x20, mload(0x40))\n      tag_40\n      swap3\n      swap2\n      swap1\n      tag_41\n      jump\t// in\n    tag_40:\n      mload(0x40)\n      0x20\n      dup2\n      dup4\n      sub\n      sub\n      dup2\n      mstore\n      swap1\n      0x40\n      mstore\n        /* \"customERC20-bridge-example/contracts/base/PolygonERC20BridgeBase.sol\":1816:1881  bytes memory messageData = abi.encode(destinationAddress, amount) */\n      swap1\n      pop\n        /* \"customERC20-bridge-example/contracts/base/PolygonERC20BridgeBase.sol\":1940:1994  _bridgeMessage(messageData, forceUpdateGlobalExitRoot) */\n      tag_42\n        /* \"customERC20-bridge-example/contracts/base/PolygonERC20BridgeBase.sol\":1955:1966  messageData */\n      dup2\n        /* \"customERC20-bridge-example/contracts/base/PolygonERC20BridgeBase.sol\":1968:1993  forceUpdateGlobalExitRoot */\n      dup4\n        /* \"customERC20-bridge-example/contracts/base/PolygonERC20BridgeBase.sol\":1940:1954  _bridgeMessage */\n      tag_43\n        /* \"customERC20-bridge-example/contracts/base/PolygonERC20BridgeBase.sol\":1940:1994  _bridgeMessage(messageData, forceUpdateGlobalExitRoot) */\n      jump\t// in\n    tag_42:\n        /* \"customERC20-bridge-example/contracts/base/PolygonERC20BridgeBase.sol\":2010:2050  BridgeTokens(destinationAddress, amount) */\n      0x84de4c8d75302469871d77e99e829ab3f981ef6b4f2ab221b8fe7816cec54e35\n        /* \"customERC20-bridge-example/contracts/base/PolygonERC20BridgeBase.sol\":2023:2041  destinationAddress */\n      dup5\n        /* \"customERC20-bridge-example/contracts/base/PolygonERC20BridgeBase.sol\":2043:2049  amount */\n      dup5\n        /* \"customERC20-bridge-example/contracts/base/PolygonERC20BridgeBase.sol\":2010:2050  BridgeTokens(destinationAddress, amount) */\n      mload(0x40)\n      tag_44\n      swap3\n      swap2\n      swap1\n      tag_41\n      jump\t// in\n    tag_44:\n      mload(0x40)\n      dup1\n      swap2\n      sub\n      swap1\n      log1\n        /* \"customERC20-bridge-example/contracts/base/PolygonERC20BridgeBase.sol\":1742:2057  {... */\n      pop\n        /* \"customERC20-bridge-example/contracts/base/PolygonERC20BridgeBase.sol\":1606:2057  function bridgeToken(... */\n      pop\n      pop\n      pop\n      jump\t// out\n        /* \"customERC20-bridge-example/contracts/base/PolygonBridgeBase.sol\":2244:2920  function onMessageReceived(... */\n    tag_16:\n        /* \"customERC20-bridge-example/contracts/base/PolygonBridgeBase.sol\":2479:2497  polygonZkEVMBridge */\n      immutable(\"0xd6a13c6c81cb9ab3ef21d363d1d3ab5a69d984268d2de28eba50c7b4b75cb8d9\")\n        /* \"customERC20-bridge-example/contracts/base/PolygonBridgeBase.sol\":2457:2498  msg.sender == address(polygonZkEVMBridge) */\n      0xffffffffffffffffffffffffffffffffffffffff\n      and\n        /* \"customERC20-bridge-example/contracts/base/PolygonBridgeBase.sol\":2457:2467  msg.sender */\n      caller\n        /* \"customERC20-bridge-example/contracts/base/PolygonBridgeBase.sol\":2457:2498  msg.sender == address(polygonZkEVMBridge) */\n      0xffffffffffffffffffffffffffffffffffffffff\n      and\n      eq\n        /* \"customERC20-bridge-example/contracts/base/PolygonBridgeBase.sol\":2436:2579  require(... */\n      tag_46\n      jumpi\n      mload(0x40)\n      0x08c379a000000000000000000000000000000000000000000000000000000000\n      dup2\n      mstore\n      0x04\n      add\n      tag_47\n      swap1\n      tag_48\n      jump\t// in\n    tag_47:\n      mload(0x40)\n      dup1\n      swap2\n      sub\n      swap1\n      revert\n    tag_46:\n        /* \"customERC20-bridge-example/contracts/base/PolygonBridgeBase.sol\":2634:2647  originAddress */\n      dup3\n        /* \"customERC20-bridge-example/contracts/base/PolygonBridgeBase.sol\":2611:2647  counterpartContract == originAddress */\n      0xffffffffffffffffffffffffffffffffffffffff\n      and\n        /* \"customERC20-bridge-example/contracts/base/PolygonBridgeBase.sol\":2611:2630  counterpartContract */\n      immutable(\"0xc54c5452b104751fde6e79369f1e7835722fc73c62bb7947ed8a0846a81f48b5\")\n        /* \"customERC20-bridge-example/contracts/base/PolygonBridgeBase.sol\":2611:2647  counterpartContract == originAddress */\n      0xffffffffffffffffffffffffffffffffffffffff\n      and\n      eq\n        /* \"customERC20-bridge-example/contracts/base/PolygonBridgeBase.sol\":2590:2730  require(... */\n      tag_49\n      jumpi\n      mload(0x40)\n      0x08c379a000000000000000000000000000000000000000000000000000000000\n      dup2\n      mstore\n      0x04\n      add\n      tag_50\n      swap1\n      tag_51\n      jump\t// in\n    tag_50:\n      mload(0x40)\n      dup1\n      swap2\n      sub\n      swap1\n      revert\n    tag_49:\n        /* \"customERC20-bridge-example/contracts/base/PolygonBridgeBase.sol\":2783:2796  originNetwork */\n      dup2\n        /* \"customERC20-bridge-example/contracts/base/PolygonBridgeBase.sol\":2761:2796  counterpartNetwork == originNetwork */\n      0xffffffff\n      and\n        /* \"customERC20-bridge-example/contracts/base/PolygonBridgeBase.sol\":2761:2779  counterpartNetwork */\n      immutable(\"0xcf40194b71458726eaa3c48678aca3ea2155d4b23d487dbc1366961bbd83fe8b\")\n        /* \"customERC20-bridge-example/contracts/base/PolygonBridgeBase.sol\":2761:2796  counterpartNetwork == originNetwork */\n      0xffffffff\n      and\n      eq\n        /* \"customERC20-bridge-example/contracts/base/PolygonBridgeBase.sol\":2740:2878  require(... */\n      tag_52\n      jumpi\n      mload(0x40)\n      0x08c379a000000000000000000000000000000000000000000000000000000000\n      dup2\n      mstore\n      0x04\n      add\n      tag_53\n      swap1\n      tag_54\n      jump\t// in\n    tag_53:\n      mload(0x40)\n      dup1\n      swap2\n      sub\n      swap1\n      revert\n    tag_52:\n        /* \"customERC20-bridge-example/contracts/base/PolygonBridgeBase.sol\":2889:2913  _onMessageReceived(data) */\n      tag_55\n        /* \"customERC20-bridge-example/contracts/base/PolygonBridgeBase.sol\":2908:2912  data */\n      dup2\n        /* \"customERC20-bridge-example/contracts/base/PolygonBridgeBase.sol\":2889:2907  _onMessageReceived */\n      tag_56\n        /* \"customERC20-bridge-example/contracts/base/PolygonBridgeBase.sol\":2889:2913  _onMessageReceived(data) */\n      jump\t// in\n    tag_55:\n        /* \"customERC20-bridge-example/contracts/base/PolygonBridgeBase.sol\":2244:2920  function onMessageReceived(... */\n      pop\n      pop\n      pop\n      jump\t// out\n        /* \"customERC20-bridge-example/contracts/base/PolygonBridgeBase.sol\":791:835  address public immutable counterpartContract */\n    tag_19:\n      immutable(\"0xc54c5452b104751fde6e79369f1e7835722fc73c62bb7947ed8a0846a81f48b5\")\n      dup2\n      jump\t// out\n        /* \"customERC20-bridge-example/contracts/base/PolygonBridgeBase.sol\":604:659  IPolygonZkEVMBridge public immutable polygonZkEVMBridge */\n    tag_24:\n      immutable(\"0xd6a13c6c81cb9ab3ef21d363d1d3ab5a69d984268d2de28eba50c7b4b75cb8d9\")\n      dup2\n      jump\t// out\n        /* \"customERC20-bridge-example/contracts/base/PolygonBridgeBase.sol\":869:911  uint32 public immutable counterpartNetwork */\n    tag_29:\n      immutable(\"0xcf40194b71458726eaa3c48678aca3ea2155d4b23d487dbc1366961bbd83fe8b\")\n      dup2\n      jump\t// out\n        /* \"customERC20-bridge-example/contracts/ERC20BridgeNativeChain.sol\":512:541  IERC20 public immutable token */\n    tag_34:\n      immutable(\"0x5ccf7c044a80e90d263c207af688291013371913674e58646df8e464913dcab2\")\n      dup2\n      jump\t// out\n        /* \"customERC20-bridge-example/contracts/ERC20BridgeNativeChain.sol\":1213:1345  function _receiveTokens(uint256 amount) internal override {... */\n    tag_39:\n        /* \"customERC20-bridge-example/contracts/ERC20BridgeNativeChain.sol\":1281:1338  token.safeTransferFrom(msg.sender, address(this), amount) */\n      tag_58\n        /* \"customERC20-bridge-example/contracts/ERC20BridgeNativeChain.sol\":1304:1314  msg.sender */\n      caller\n        /* \"customERC20-bridge-example/contracts/ERC20BridgeNativeChain.sol\":1324:1328  this */\n      address\n        /* \"customERC20-bridge-example/contracts/ERC20BridgeNativeChain.sol\":1331:1337  amount */\n      dup4\n        /* \"customERC20-bridge-example/contracts/ERC20BridgeNativeChain.sol\":1281:1286  token */\n      immutable(\"0x5ccf7c044a80e90d263c207af688291013371913674e58646df8e464913dcab2\")\n        /* \"customERC20-bridge-example/contracts/ERC20BridgeNativeChain.sol\":1281:1303  token.safeTransferFrom */\n      0xffffffffffffffffffffffffffffffffffffffff\n      and\n      tag_59\n      swap1\n        /* \"customERC20-bridge-example/contracts/ERC20BridgeNativeChain.sol\":1281:1338  token.safeTransferFrom(msg.sender, address(this), amount) */\n      swap4\n      swap3\n      swap2\n      swap1\n      0xffffffff\n      and\n      jump\t// in\n    tag_58:\n        /* \"customERC20-bridge-example/contracts/ERC20BridgeNativeChain.sol\":1213:1345  function _receiveTokens(uint256 amount) internal override {... */\n      pop\n      jump\t// out\n        /* \"customERC20-bridge-example/contracts/base/PolygonBridgeBase.sol\":1602:1911  function _bridgeMessage(... */\n    tag_43:\n        /* \"customERC20-bridge-example/contracts/base/PolygonBridgeBase.sol\":1733:1751  polygonZkEVMBridge */\n      immutable(\"0xd6a13c6c81cb9ab3ef21d363d1d3ab5a69d984268d2de28eba50c7b4b75cb8d9\")\n        /* \"customERC20-bridge-example/contracts/base/PolygonBridgeBase.sol\":1733:1765  polygonZkEVMBridge.bridgeMessage */\n      0xffffffffffffffffffffffffffffffffffffffff\n      and\n      0x240ff378\n        /* \"customERC20-bridge-example/contracts/base/PolygonBridgeBase.sol\":1779:1797  counterpartNetwork */\n      immutable(\"0xcf40194b71458726eaa3c48678aca3ea2155d4b23d487dbc1366961bbd83fe8b\")\n        /* \"customERC20-bridge-example/contracts/base/PolygonBridgeBase.sol\":1811:1830  counterpartContract */\n      immutable(\"0xc54c5452b104751fde6e79369f1e7835722fc73c62bb7947ed8a0846a81f48b5\")\n        /* \"customERC20-bridge-example/contracts/base/PolygonBridgeBase.sol\":1844:1869  forceUpdateGlobalExitRoot */\n      dup5\n        /* \"customERC20-bridge-example/contracts/base/PolygonBridgeBase.sol\":1883:1894  messageData */\n      dup7\n        /* \"customERC20-bridge-example/contracts/base/PolygonBridgeBase.sol\":1733:1904  polygonZkEVMBridge.bridgeMessage(... */\n      mload(0x40)\n      dup6\n      0xffffffff\n      and\n      0xe0\n      shl\n      dup2\n      mstore\n      0x04\n      add\n      tag_61\n      swap5\n      swap4\n      swap3\n      swap2\n      swap1\n      tag_62\n      jump\t// in\n    tag_61:\n      0x00\n      mload(0x40)\n      dup1\n      dup4\n      sub\n      dup2\n      0x00\n      dup8\n      dup1\n      extcodesize\n      iszero\n      dup1\n      iszero\n      tag_63\n      jumpi\n      0x00\n      dup1\n      revert\n    tag_63:\n      pop\n      gas\n      call\n      iszero\n      dup1\n      iszero\n      tag_65\n      jumpi\n      returndatasize\n      0x00\n      dup1\n      returndatacopy\n      revert(0x00, returndatasize)\n    tag_65:\n      pop\n      pop\n      pop\n      pop\n        /* \"customERC20-bridge-example/contracts/base/PolygonBridgeBase.sol\":1602:1911  function _bridgeMessage(... */\n      pop\n      pop\n      jump\t// out\n        /* \"customERC20-bridge-example/contracts/base/PolygonERC20BridgeBase.sol\":2233:2571  function _onMessageReceived(bytes memory data) internal override {... */\n    tag_56:\n        /* \"customERC20-bridge-example/contracts/base/PolygonERC20BridgeBase.sol\":2340:2366  address destinationAddress */\n      0x00\n        /* \"customERC20-bridge-example/contracts/base/PolygonERC20BridgeBase.sol\":2368:2382  uint256 amount */\n      dup1\n        /* \"customERC20-bridge-example/contracts/base/PolygonERC20BridgeBase.sol\":2410:2414  data */\n      dup3\n        /* \"customERC20-bridge-example/contracts/base/PolygonERC20BridgeBase.sol\":2386:2456  abi.decode(... */\n      dup1\n      0x20\n      add\n      swap1\n      mload\n      dup2\n      add\n      swap1\n      tag_67\n      swap2\n      swap1\n      tag_68\n      jump\t// in\n    tag_67:\n        /* \"customERC20-bridge-example/contracts/base/PolygonERC20BridgeBase.sol\":2339:2456  (address destinationAddress, uint256 amount) = abi.decode(... */\n      swap2\n      pop\n      swap2\n      pop\n        /* \"customERC20-bridge-example/contracts/base/PolygonERC20BridgeBase.sol\":2467:2510  _transferTokens(destinationAddress, amount) */\n      tag_69\n        /* \"customERC20-bridge-example/contracts/base/PolygonERC20BridgeBase.sol\":2483:2501  destinationAddress */\n      dup3\n        /* \"customERC20-bridge-example/contracts/base/PolygonERC20BridgeBase.sol\":2503:2509  amount */\n      dup3\n        /* \"customERC20-bridge-example/contracts/base/PolygonERC20BridgeBase.sol\":2467:2482  _transferTokens */\n      tag_70\n        /* \"customERC20-bridge-example/contracts/base/PolygonERC20BridgeBase.sol\":2467:2510  _transferTokens(destinationAddress, amount) */\n      jump\t// in\n    tag_69:\n        /* \"customERC20-bridge-example/contracts/base/PolygonERC20BridgeBase.sol\":2525:2564  ClaimTokens(destinationAddress, amount) */\n      0x4d7f917f6b905f28ba5297e6c224a6cfec20ac6a3698a55b412d30b95ad25d2f\n        /* \"customERC20-bridge-example/contracts/base/PolygonERC20BridgeBase.sol\":2537:2555  destinationAddress */\n      dup3\n        /* \"customERC20-bridge-example/contracts/base/PolygonERC20BridgeBase.sol\":2557:2563  amount */\n      dup3\n        /* \"customERC20-bridge-example/contracts/base/PolygonERC20BridgeBase.sol\":2525:2564  ClaimTokens(destinationAddress, amount) */\n      mload(0x40)\n      tag_71\n      swap3\n      swap2\n      swap1\n      tag_41\n      jump\t// in\n    tag_71:\n      mload(0x40)\n      dup1\n      swap2\n      sub\n      swap1\n      log1\n        /* \"customERC20-bridge-example/contracts/base/PolygonERC20BridgeBase.sol\":2298:2571  {... */\n      pop\n      pop\n        /* \"customERC20-bridge-example/contracts/base/PolygonERC20BridgeBase.sol\":2233:2571  function _onMessageReceived(bytes memory data) internal override {... */\n      pop\n      jump\t// out\n        /* \"@openzeppelin/contracts/token/ERC20/utils/SafeERC20.sol\":1702:1890  function safeTransferFrom(IERC20 token, address from, address to, uint256 value) internal {... */\n    tag_59:\n        /* \"@openzeppelin/contracts/token/ERC20/utils/SafeERC20.sol\":1802:1883  _callOptionalReturn(token, abi.encodeCall(token.transferFrom, (from, to, value))) */\n      tag_73\n        /* \"@openzeppelin/contracts/token/ERC20/utils/SafeERC20.sol\":1822:1827  token */\n      dup5\n        /* \"@openzeppelin/contracts/token/ERC20/utils/SafeERC20.sol\":1844:1849  token */\n      dup6\n        /* \"@openzeppelin/contracts/token/ERC20/utils/SafeERC20.sol\":1844:1862  token.transferFrom */\n      0xffffffffffffffffffffffffffffffffffffffff\n      and\n      0x23b872dd\n        /* \"@openzeppelin/contracts/token/ERC20/utils/SafeERC20.sol\":1865:1869  from */\n      dup7\n        /* \"@openzeppelin/contracts/token/ERC20/utils/SafeERC20.sol\":1871:1873  to */\n      dup7\n        /* \"@openzeppelin/contracts/token/ERC20/utils/SafeERC20.sol\":1875:1880  value */\n      dup7\n        /* \"@openzeppelin/contracts/token/ERC20/utils/SafeERC20.sol\":1829:1882  abi.encodeCall(token.transferFrom, (from, to, value)) */\n      add(0x24, mload(0x40))\n      tag_74\n      swap4\n      swap3\n      swap2\n      swap1\n      tag_75\n      jump\t// in\n    tag_74:\n      mload(0x40)\n      0x20\n      dup2\n      dup4\n      sub\n      sub\n      dup2\n      mstore\n      swap1\n      0x40\n      mstore\n      swap2\n      pop\n      0xe0\n      shl\n      0x20\n      dup3\n      add\n      dup1\n      mload\n      0xffffffffffffffffffffffffffffffffffffffffffffffffffffffff\n      dup4\n      dup2\n      dup4\n      and\n      or\n      dup4\n      mstore\n      pop\n      pop\n      pop\n      pop\n        /* \"@openzeppelin/contracts/token/ERC20/utils/SafeERC20.sol\":1802:1821  _callOptionalReturn */\n      tag_76\n        /* \"@openzeppelin/contracts/token/ERC20/utils/SafeERC20.sol\":1802:1883  _callOptionalReturn(token, abi.encodeCall(token.transferFrom, (from, to, value))) */\n      jump\t// in\n    tag_73:\n        /* \"@openzeppelin/contracts/token/ERC20/utils/SafeERC20.sol\":1702:1890  function safeTransferFrom(IERC20 token, address from, address to, uint256 value) internal {... */\n      pop\n      pop\n      pop\n      pop\n      jump\t// out\n        /* \"customERC20-bridge-example/contracts/ERC20BridgeNativeChain.sol\":1550:1722  function _transferTokens(... */\n    tag_70:\n        /* \"customERC20-bridge-example/contracts/ERC20BridgeNativeChain.sol\":1669:1715  token.safeTransfer(destinationAddress, amount) */\n      tag_78\n        /* \"customERC20-bridge-example/contracts/ERC20BridgeNativeChain.sol\":1688:1706  destinationAddress */\n      dup3\n        /* \"customERC20-bridge-example/contracts/ERC20BridgeNativeChain.sol\":1708:1714  amount */\n      dup3\n        /* \"customERC20-bridge-example/contracts/ERC20BridgeNativeChain.sol\":1669:1674  token */\n      immutable(\"0x5ccf7c044a80e90d263c207af688291013371913674e58646df8e464913dcab2\")\n        /* \"customERC20-bridge-example/contracts/ERC20BridgeNativeChain.sol\":1669:1687  token.safeTransfer */\n      0xffffffffffffffffffffffffffffffffffffffff\n      and\n      tag_79\n      swap1\n        /* \"customERC20-bridge-example/contracts/ERC20BridgeNativeChain.sol\":1669:1715  token.safeTransfer(destinationAddress, amount) */\n      swap3\n      swap2\n      swap1\n      0xffffffff\n      and\n      jump\t// in\n    tag_78:\n        /* \"customERC20-bridge-example/contracts/ERC20BridgeNativeChain.sol\":1550:1722  function _transferTokens(... */\n      pop\n      pop\n      jump\t// out\n        /* \"@openzeppelin/contracts/token/ERC20/utils/SafeERC20.sol\":4059:4688  function _callOptionalReturn(IERC20 token, bytes memory data) private {... */\n    tag_76:\n        /* \"@openzeppelin/contracts/token/ERC20/utils/SafeERC20.sol\":4478:4501  bytes memory returndata */\n      0x00\n        /* \"@openzeppelin/contracts/token/ERC20/utils/SafeERC20.sol\":4504:4537  address(token).functionCall(data) */\n      tag_81\n        /* \"@openzeppelin/contracts/token/ERC20/utils/SafeERC20.sol\":4532:4536  data */\n      dup3\n        /* \"@openzeppelin/contracts/token/ERC20/utils/SafeERC20.sol\":4512:4517  token */\n      dup5\n        /* \"@openzeppelin/contracts/token/ERC20/utils/SafeERC20.sol\":4504:4531  address(token).functionCall */\n      0xffffffffffffffffffffffffffffffffffffffff\n      and\n      tag_82\n      swap1\n        /* \"@openzeppelin/contracts/token/ERC20/utils/SafeERC20.sol\":4504:4537  address(token).functionCall(data) */\n      swap2\n      swap1\n      0xffffffff\n      and\n      jump\t// in\n    tag_81:\n        /* \"@openzeppelin/contracts/token/ERC20/utils/SafeERC20.sol\":4478:4537  bytes memory returndata = address(token).functionCall(data) */\n      swap1\n      pop\n        /* \"@openzeppelin/contracts/token/ERC20/utils/SafeERC20.sol\":4572:4573  0 */\n      0x00\n        /* \"@openzeppelin/contracts/token/ERC20/utils/SafeERC20.sol\":4551:4561  returndata */\n      dup2\n        /* \"@openzeppelin/contracts/token/ERC20/utils/SafeERC20.sol\":4551:4568  returndata.length */\n      mload\n        /* \"@openzeppelin/contracts/token/ERC20/utils/SafeERC20.sol\":4551:4573  returndata.length != 0 */\n      eq\n      iszero\n        /* \"@openzeppelin/contracts/token/ERC20/utils/SafeERC20.sol\":4551:4608  returndata.length != 0 && !abi.decode(returndata, (bool)) */\n      dup1\n      iszero\n      tag_83\n      jumpi\n      pop\n        /* \"@openzeppelin/contracts/token/ERC20/utils/SafeERC20.sol\":4589:4599  returndata */\n      dup1\n        /* \"@openzeppelin/contracts/token/ERC20/utils/SafeERC20.sol\":4578:4608  abi.decode(returndata, (bool)) */\n      dup1\n      0x20\n      add\n      swap1\n      mload\n      dup2\n      add\n      swap1\n      tag_84\n      swap2\n      swap1\n      tag_85\n      jump\t// in\n    tag_84:\n        /* \"@openzeppelin/contracts/token/ERC20/utils/SafeERC20.sol\":4577:4608  !abi.decode(returndata, (bool)) */\n      iszero\n        /* \"@openzeppelin/contracts/token/ERC20/utils/SafeERC20.sol\":4551:4608  returndata.length != 0 && !abi.decode(returndata, (bool)) */\n    tag_83:\n        /* \"@openzeppelin/contracts/token/ERC20/utils/SafeERC20.sol\":4547:4682  if (returndata.length != 0 && !abi.decode(returndata, (bool))) {... */\n      iszero\n      tag_86\n      jumpi\n        /* \"@openzeppelin/contracts/token/ERC20/utils/SafeERC20.sol\":4664:4669  token */\n      dup3\n        /* \"@openzeppelin/contracts/token/ERC20/utils/SafeERC20.sol\":4631:4671  SafeERC20FailedOperation(address(token)) */\n      mload(0x40)\n      0x5274afe700000000000000000000000000000000000000000000000000000000\n      dup2\n      mstore\n      0x04\n      add\n      tag_87\n      swap2\n      swap1\n      tag_21\n      jump\t// in\n    tag_87:\n      mload(0x40)\n      dup1\n      swap2\n      sub\n      swap1\n      revert\n        /* \"@openzeppelin/contracts/token/ERC20/utils/SafeERC20.sol\":4547:4682  if (returndata.length != 0 && !abi.decode(returndata, (bool))) {... */\n    tag_86:\n        /* \"@openzeppelin/contracts/token/ERC20/utils/SafeERC20.sol\":4129:4688  {... */\n      pop\n        /* \"@openzeppelin/contracts/token/ERC20/utils/SafeERC20.sol\":4059:4688  function _callOptionalReturn(IERC20 token, bytes memory data) private {... */\n      pop\n      pop\n      jump\t// out\n        /* \"@openzeppelin/contracts/token/ERC20/utils/SafeERC20.sol\":1303:1463  function safeTransfer(IERC20 token, address to, uint256 value) internal {... */\n    tag_79:\n        /* \"@openzeppelin/contracts/token/ERC20/utils/SafeERC20.sol\":1385:1456  _callOptionalReturn(token, abi.encodeCall(token.transfer, (to, value))) */\n      tag_89\n        /* \"@openzeppelin/contracts/token/ERC20/utils/SafeERC20.sol\":1405:1410  token */\n      dup4\n        /* \"@openzeppelin/contracts/token/ERC20/utils/SafeERC20.sol\":1427:1432  token */\n      dup5\n        /* \"@openzeppelin/contracts/token/ERC20/utils/SafeERC20.sol\":1427:1441  token.transfer */\n      0xffffffffffffffffffffffffffffffffffffffff\n      and\n      0xa9059cbb\n        /* \"@openzeppelin/contracts/token/ERC20/utils/SafeERC20.sol\":1444:1446  to */\n      dup6\n        /* \"@openzeppelin/contracts/token/ERC20/utils/SafeERC20.sol\":1448:1453  value */\n      dup6\n        /* \"@openzeppelin/contracts/token/ERC20/utils/SafeERC20.sol\":1412:1455  abi.encodeCall(token.transfer, (to, value)) */\n      add(0x24, mload(0x40))\n      tag_90\n      swap3\n      swap2\n      swap1\n      tag_41\n      jump\t// in\n    tag_90:\n      mload(0x40)\n      0x20\n      dup2\n      dup4\n      sub\n      sub\n      dup2\n      mstore\n      swap1\n      0x40\n      mstore\n      swap2\n      pop\n      0xe0\n      shl\n      0x20\n      dup3\n      add\n      dup1\n      mload\n      0xffffffffffffffffffffffffffffffffffffffffffffffffffffffff\n      dup4\n      dup2\n      dup4\n      and\n      or\n      dup4\n      mstore\n      pop\n      pop\n      pop\n      pop\n        /* \"@openzeppelin/contracts/token/ERC20/utils/SafeERC20.sol\":1385:1404  _callOptionalReturn */\n      tag_76\n        /* \"@openzeppelin/contracts/token/ERC20/utils/SafeERC20.sol\":1385:1456  _callOptionalReturn(token, abi.encodeCall(token.transfer, (to, value))) */\n      jump\t// in\n    tag_89:\n        /* \"@openzeppelin/contracts/token/ERC20/utils/SafeERC20.sol\":1303:1463  function safeTransfer(IERC20 token, address to, uint256 value) internal {... */\n      pop\n      pop\n      pop\n      jump\t// out\n        /* \"@openzeppelin/contracts/utils/Address.sol\":2705:2856  function functionCall(address target, bytes memory data) internal returns (bytes memory) {... */\n    tag_82:\n        /* \"@openzeppelin/contracts/utils/Address.sol\":2780:2792  bytes memory */\n      0x60\n        /* \"@openzeppelin/contracts/utils/Address.sol\":2811:2849  functionCallWithValue(target, data, 0) */\n      tag_92\n        /* \"@openzeppelin/contracts/utils/Address.sol\":2833:2839  target */\n      dup4\n        /* \"@openzeppelin/contracts/utils/Address.sol\":2841:2845  data */\n      dup4\n        /* \"@openzeppelin/contracts/utils/Address.sol\":2847:2848  0 */\n      0x00\n        /* \"@openzeppelin/contracts/utils/Address.sol\":2811:2832  functionCallWithValue */\n      tag_93\n        /* \"@openzeppelin/contracts/utils/Address.sol\":2811:2849  functionCallWithValue(target, data, 0) */\n      jump\t// in\n    tag_92:\n        /* \"@openzeppelin/contracts/utils/Address.sol\":2804:2849  return functionCallWithValue(target, data, 0) */\n      swap1\n      pop\n        /* \"@openzeppelin/contracts/utils/Address.sol\":2705:2856  function functionCall(address target, bytes memory data) internal returns (bytes memory) {... */\n      swap3\n      swap2\n      pop\n      pop\n      jump\t// out\n        /* \"@openzeppelin/contracts/utils/Address.sol\":3180:3572  function functionCallWithValue(address target, bytes memory data, uint256 value) internal returns (bytes memory) {... */\n    tag_93:\n        /* \"@openzeppelin/contracts/utils/Address.sol\":3279:3291  bytes memory */\n      0x60\n        /* \"@openzeppelin/contracts/utils/Address.sol\":3331:3336  value */\n      dup2\n        /* \"@openzeppelin/contracts/utils/Address.sol\":3307:3328  address(this).balance */\n      selfbalance\n        /* \"@openzeppelin/contracts/utils/Address.sol\":3307:3336  address(this).balance < value */\n      lt\n        /* \"@openzeppelin/contracts/utils/Address.sol\":3303:3411  if (address(this).balance < value) {... */\n      iszero\n      tag_95\n      jumpi\n        /* \"@openzeppelin/contracts/utils/Address.sol\":3394:3398  this */\n      address\n        /* \"@openzeppelin/contracts/utils/Address.sol\":3359:3400  AddressInsufficientBalance(address(this)) */\n      mload(0x40)\n      0xcd78605900000000000000000000000000000000000000000000000000000000\n      dup2\n      mstore\n      0x04\n      add\n      tag_96\n      swap2\n      swap1\n      tag_21\n      jump\t// in\n    tag_96:\n      mload(0x40)\n      dup1\n      swap2\n      sub\n      swap1\n      revert\n        /* \"@openzeppelin/contracts/utils/Address.sol\":3303:3411  if (address(this).balance < value) {... */\n    tag_95:\n        /* \"@openzeppelin/contracts/utils/Address.sol\":3421:3433  bool success */\n      0x00\n        /* \"@openzeppelin/contracts/utils/Address.sol\":3435:3458  bytes memory returndata */\n      dup1\n        /* \"@openzeppelin/contracts/utils/Address.sol\":3462:3468  target */\n      dup6\n        /* \"@openzeppelin/contracts/utils/Address.sol\":3462:3473  target.call */\n      0xffffffffffffffffffffffffffffffffffffffff\n      and\n        /* \"@openzeppelin/contracts/utils/Address.sol\":3481:3486  value */\n      dup5\n        /* \"@openzeppelin/contracts/utils/Address.sol\":3488:3492  data */\n      dup7\n        /* \"@openzeppelin/contracts/utils/Address.sol\":3462:3493  target.call{value: value}(data) */\n      mload(0x40)\n      tag_97\n      swap2\n      swap1\n      tag_98\n      jump\t// in\n    tag_97:\n      0x00\n      mload(0x40)\n      dup1\n      dup4\n      sub\n      dup2\n      dup6\n      dup8\n      gas\n      call\n      swap3\n      pop\n      pop\n      pop\n      returndatasize\n      dup1\n      0x00\n      dup2\n      eq\n      tag_101\n      jumpi\n      mload(0x40)\n      swap2\n      pop\n      and(add(returndatasize, 0x3f), not(0x1f))\n      dup3\n      add\n      0x40\n      mstore\n      returndatasize\n      dup3\n      mstore\n      returndatasize\n      0x00\n      0x20\n      dup5\n      add\n      returndatacopy\n      jump(tag_100)\n    tag_101:\n      0x60\n      swap2\n      pop\n    tag_100:\n      pop\n        /* \"@openzeppelin/contracts/utils/Address.sol\":3420:3493  (bool success, bytes memory returndata) = target.call{value: value}(data) */\n      swap2\n      pop\n      swap2\n      pop\n        /* \"@openzeppelin/contracts/utils/Address.sol\":3510:3565  verifyCallResultFromTarget(target, success, returndata) */\n      tag_102\n        /* \"@openzeppelin/contracts/utils/Address.sol\":3537:3543  target */\n      dup7\n        /* \"@openzeppelin/contracts/utils/Address.sol\":3545:3552  success */\n      dup4\n        /* \"@openzeppelin/contracts/utils/Address.sol\":3554:3564  returndata */\n      dup4\n        /* \"@openzeppelin/contracts/utils/Address.sol\":3510:3536  verifyCallResultFromTarget */\n      tag_103\n        /* \"@openzeppelin/contracts/utils/Address.sol\":3510:3565  verifyCallResultFromTarget(target, success, returndata) */\n      jump\t// in\n    tag_102:\n        /* \"@openzeppelin/contracts/utils/Address.sol\":3503:3565  return verifyCallResultFromTarget(target, success, returndata) */\n      swap3\n      pop\n      pop\n      pop\n        /* \"@openzeppelin/contracts/utils/Address.sol\":3180:3572  function functionCallWithValue(address target, bytes memory data, uint256 value) internal returns (bytes memory) {... */\n      swap4\n      swap3\n      pop\n      pop\n      pop\n      jump\t// out\n        /* \"@openzeppelin/contracts/utils/Address.sol\":4625:5207  function verifyCallResultFromTarget(... */\n    tag_103:\n        /* \"@openzeppelin/contracts/utils/Address.sol\":4769:4781  bytes memory */\n      0x60\n        /* \"@openzeppelin/contracts/utils/Address.sol\":4798:4805  success */\n      dup3\n        /* \"@openzeppelin/contracts/utils/Address.sol\":4793:5201  if (!success) {... */\n      tag_105\n      jumpi\n        /* \"@openzeppelin/contracts/utils/Address.sol\":4821:4840  _revert(returndata) */\n      tag_106\n        /* \"@openzeppelin/contracts/utils/Address.sol\":4829:4839  returndata */\n      dup3\n        /* \"@openzeppelin/contracts/utils/Address.sol\":4821:4828  _revert */\n      tag_107\n        /* \"@openzeppelin/contracts/utils/Address.sol\":4821:4840  _revert(returndata) */\n      jump\t// in\n    tag_106:\n        /* \"@openzeppelin/contracts/utils/Address.sol\":4793:5201  if (!success) {... */\n      jump(tag_108)\n    tag_105:\n        /* \"@openzeppelin/contracts/utils/Address.sol\":5066:5067  0 */\n      0x00\n        /* \"@openzeppelin/contracts/utils/Address.sol\":5045:5055  returndata */\n      dup3\n        /* \"@openzeppelin/contracts/utils/Address.sol\":5045:5062  returndata.length */\n      mload\n        /* \"@openzeppelin/contracts/utils/Address.sol\":5045:5067  returndata.length == 0 */\n      eq\n        /* \"@openzeppelin/contracts/utils/Address.sol\":5045:5094  returndata.length == 0 && target.code.length == 0 */\n      dup1\n      iszero\n      tag_109\n      jumpi\n      pop\n        /* \"@openzeppelin/contracts/utils/Address.sol\":5093:5094  0 */\n      0x00\n        /* \"@openzeppelin/contracts/utils/Address.sol\":5071:5077  target */\n      dup5\n        /* \"@openzeppelin/contracts/utils/Address.sol\":5071:5089  target.code.length */\n      0xffffffffffffffffffffffffffffffffffffffff\n      and\n      extcodesize\n        /* \"@openzeppelin/contracts/utils/Address.sol\":5071:5094  target.code.length == 0 */\n      eq\n        /* \"@openzeppelin/contracts/utils/Address.sol\":5045:5094  returndata.length == 0 && target.code.length == 0 */\n    tag_109:\n        /* \"@openzeppelin/contracts/utils/Address.sol\":5041:5160  if (returndata.length == 0 && target.code.length == 0) {... */\n      iszero\n      tag_110\n      jumpi\n        /* \"@openzeppelin/contracts/utils/Address.sol\":5138:5144  target */\n      dup4\n        /* \"@openzeppelin/contracts/utils/Address.sol\":5121:5145  AddressEmptyCode(target) */\n      mload(0x40)\n      0x9996b31500000000000000000000000000000000000000000000000000000000\n      dup2\n      mstore\n      0x04\n      add\n      tag_111\n      swap2\n      swap1\n      tag_21\n      jump\t// in\n    tag_111:\n      mload(0x40)\n      dup1\n      swap2\n      sub\n      swap1\n      revert\n        /* \"@openzeppelin/contracts/utils/Address.sol\":5041:5160  if (returndata.length == 0 && target.code.length == 0) {... */\n    tag_110:\n        /* \"@openzeppelin/contracts/utils/Address.sol\":5180:5190  returndata */\n      dup2\n        /* \"@openzeppelin/contracts/utils/Address.sol\":5173:5190  return returndata */\n      swap1\n      pop\n      jump(tag_104)\n        /* \"@openzeppelin/contracts/utils/Address.sol\":4793:5201  if (!success) {... */\n    tag_108:\n        /* \"@openzeppelin/contracts/utils/Address.sol\":4625:5207  function verifyCallResultFromTarget(... */\n    tag_104:\n      swap4\n      swap3\n      pop\n      pop\n      pop\n      jump\t// out\n        /* \"@openzeppelin/contracts/utils/Address.sol\":5743:6259  function _revert(bytes memory returndata) private pure {... */\n    tag_107:\n        /* \"@openzeppelin/contracts/utils/Address.sol\":5894:5895  0 */\n      0x00\n        /* \"@openzeppelin/contracts/utils/Address.sol\":5874:5884  returndata */\n      dup2\n        /* \"@openzeppelin/contracts/utils/Address.sol\":5874:5891  returndata.length */\n      mload\n        /* \"@openzeppelin/contracts/utils/Address.sol\":5874:5895  returndata.length > 0 */\n      gt\n        /* \"@openzeppelin/contracts/utils/Address.sol\":5870:6253  if (returndata.length > 0) {... */\n      iszero\n      tag_113\n      jumpi\n        /* \"@openzeppelin/contracts/utils/Address.sol\":6102:6112  returndata */\n      dup1\n        /* \"@openzeppelin/contracts/utils/Address.sol\":6096:6113  mload(returndata) */\n      mload\n        /* \"@openzeppelin/contracts/utils/Address.sol\":6158:6173  returndata_size */\n      dup1\n        /* \"@openzeppelin/contracts/utils/Address.sol\":6145:6155  returndata */\n      dup3\n        /* \"@openzeppelin/contracts/utils/Address.sol\":6141:6143  32 */\n      0x20\n        /* \"@openzeppelin/contracts/utils/Address.sol\":6137:6156  add(32, returndata) */\n      add\n        /* \"@openzeppelin/contracts/utils/Address.sol\":6130:6174  revert(add(32, returndata), returndata_size) */\n      revert\n        /* \"@openzeppelin/contracts/utils/Address.sol\":5870:6253  if (returndata.length > 0) {... */\n    tag_113:\n        /* \"@openzeppelin/contracts/utils/Address.sol\":6225:6242  FailedInnerCall() */\n      mload(0x40)\n      0x1425ea4200000000000000000000000000000000000000000000000000000000\n      dup2\n      mstore\n      0x04\n      add\n      mload(0x40)\n      dup1\n      swap2\n      sub\n      swap1\n      revert\n        /* \"#utility.yul\":7:82   */\n    tag_115:\n        /* \"#utility.yul\":40:46   */\n      0x00\n        /* \"#utility.yul\":73:75   */\n      0x40\n        /* \"#utility.yul\":67:76   */\n      mload\n        /* \"#utility.yul\":57:76   */\n      swap1\n      pop\n        /* \"#utility.yul\":7:82   */\n      swap1\n      jump\t// out\n        /* \"#utility.yul\":88:205   */\n    tag_116:\n        /* \"#utility.yul\":197:198   */\n      0x00\n        /* \"#utility.yul\":194:195   */\n      dup1\n        /* \"#utility.yul\":187:199   */\n      revert\n        /* \"#utility.yul\":211:328   */\n    tag_117:\n        /* \"#utility.yul\":320:321   */\n      0x00\n        /* \"#utility.yul\":317:318   */\n      dup1\n        /* \"#utility.yul\":310:322   */\n      revert\n        /* \"#utility.yul\":334:460   */\n    tag_118:\n        /* \"#utility.yul\":371:378   */\n      0x00\n        /* \"#utility.yul\":411:453   */\n      0xffffffffffffffffffffffffffffffffffffffff\n        /* \"#utility.yul\":404:409   */\n      dup3\n        /* \"#utility.yul\":400:454   */\n      and\n        /* \"#utility.yul\":389:454   */\n      swap1\n      pop\n        /* \"#utility.yul\":334:460   */\n      swap2\n      swap1\n      pop\n      jump\t// out\n        /* \"#utility.yul\":466:562   */\n    tag_119:\n        /* \"#utility.yul\":503:510   */\n      0x00\n        /* \"#utility.yul\":532:556   */\n      tag_176\n        /* \"#utility.yul\":550:555   */\n      dup3\n        /* \"#utility.yul\":532:556   */\n      tag_118\n      jump\t// in\n    tag_176:\n        /* \"#utility.yul\":521:556   */\n      swap1\n      pop\n        /* \"#utility.yul\":466:562   */\n      swap2\n      swap1\n      pop\n      jump\t// out\n        /* \"#utility.yul\":568:690   */\n    tag_120:\n        /* \"#utility.yul\":641:665   */\n      tag_178\n        /* \"#utility.yul\":659:664   */\n      dup2\n        /* \"#utility.yul\":641:665   */\n      tag_119\n      jump\t// in\n    tag_178:\n        /* \"#utility.yul\":634:639   */\n      dup2\n        /* \"#utility.yul\":631:666   */\n      eq\n        /* \"#utility.yul\":621:684   */\n      tag_179\n      jumpi\n        /* \"#utility.yul\":680:681   */\n      0x00\n        /* \"#utility.yul\":677:678   */\n      dup1\n        /* \"#utility.yul\":670:682   */\n      revert\n        /* \"#utility.yul\":621:684   */\n    tag_179:\n        /* \"#utility.yul\":568:690   */\n      pop\n      jump\t// out\n        /* \"#utility.yul\":696:835   */\n    tag_121:\n        /* \"#utility.yul\":742:747   */\n      0x00\n        /* \"#utility.yul\":780:786   */\n      dup2\n        /* \"#utility.yul\":767:787   */\n      calldataload\n        /* \"#utility.yul\":758:787   */\n      swap1\n      pop\n        /* \"#utility.yul\":796:829   */\n      tag_181\n        /* \"#utility.yul\":823:828   */\n      dup2\n        /* \"#utility.yul\":796:829   */\n      tag_120\n      jump\t// in\n    tag_181:\n        /* \"#utility.yul\":696:835   */\n      swap3\n      swap2\n      pop\n      pop\n      jump\t// out\n        /* \"#utility.yul\":841:918   */\n    tag_122:\n        /* \"#utility.yul\":878:885   */\n      0x00\n        /* \"#utility.yul\":907:912   */\n      dup2\n        /* \"#utility.yul\":896:912   */\n      swap1\n      pop\n        /* \"#utility.yul\":841:918   */\n      swap2\n      swap1\n      pop\n      jump\t// out\n        /* \"#utility.yul\":924:1046   */\n    tag_123:\n        /* \"#utility.yul\":997:1021   */\n      tag_184\n        /* \"#utility.yul\":1015:1020   */\n      dup2\n        /* \"#utility.yul\":997:1021   */\n      tag_122\n      jump\t// in\n    tag_184:\n        /* \"#utility.yul\":990:995   */\n      dup2\n        /* \"#utility.yul\":987:1022   */\n      eq\n        /* \"#utility.yul\":977:1040   */\n      tag_185\n      jumpi\n        /* \"#utility.yul\":1036:1037   */\n      0x00\n        /* \"#utility.yul\":1033:1034   */\n      dup1\n        /* \"#utility.yul\":1026:1038   */\n      revert\n        /* \"#utility.yul\":977:1040   */\n    tag_185:\n        /* \"#utility.yul\":924:1046   */\n      pop\n      jump\t// out\n        /* \"#utility.yul\":1052:1191   */\n    tag_124:\n        /* \"#utility.yul\":1098:1103   */\n      0x00\n        /* \"#utility.yul\":1136:1142   */\n      dup2\n        /* \"#utility.yul\":1123:1143   */\n      calldataload\n        /* \"#utility.yul\":1114:1143   */\n      swap1\n      pop\n        /* \"#utility.yul\":1152:1185   */\n      tag_187\n        /* \"#utility.yul\":1179:1184   */\n      dup2\n        /* \"#utility.yul\":1152:1185   */\n      tag_123\n      jump\t// in\n    tag_187:\n        /* \"#utility.yul\":1052:1191   */\n      swap3\n      swap2\n      pop\n      pop\n      jump\t// out\n        /* \"#utility.yul\":1197:1287   */\n    tag_125:\n        /* \"#utility.yul\":1231:1238   */\n      0x00\n        /* \"#utility.yul\":1274:1279   */\n      dup2\n        /* \"#utility.yul\":1267:1280   */\n      iszero\n        /* \"#utility.yul\":1260:1281   */\n      iszero\n        /* \"#utility.yul\":1249:1281   */\n      swap1\n      pop\n        /* \"#utility.yul\":1197:1287   */\n      swap2\n      swap1\n      pop\n      jump\t// out\n        /* \"#utility.yul\":1293:1409   */\n    tag_126:\n        /* \"#utility.yul\":1363:1384   */\n      tag_190\n        /* \"#utility.yul\":1378:1383   */\n      dup2\n        /* \"#utility.yul\":1363:1384   */\n      tag_125\n      jump\t// in\n    tag_190:\n        /* \"#utility.yul\":1356:1361   */\n      dup2\n        /* \"#utility.yul\":1353:1385   */\n      eq\n        /* \"#utility.yul\":1343:1403   */\n      tag_191\n      jumpi\n        /* \"#utility.yul\":1399:1400   */\n      0x00\n        /* \"#utility.yul\":1396:1397   */\n      dup1\n        /* \"#utility.yul\":1389:1401   */\n      revert\n        /* \"#utility.yul\":1343:1403   */\n    tag_191:\n        /* \"#utility.yul\":1293:1409   */\n      pop\n      jump\t// out\n        /* \"#utility.yul\":1415:1548   */\n    tag_127:\n        /* \"#utility.yul\":1458:1463   */\n      0x00\n        /* \"#utility.yul\":1496:1502   */\n      dup2\n        /* \"#utility.yul\":1483:1503   */\n      calldataload\n        /* \"#utility.yul\":1474:1503   */\n      swap1\n      pop\n        /* \"#utility.yul\":1512:1542   */\n      tag_193\n        /* \"#utility.yul\":1536:1541   */\n      dup2\n        /* \"#utility.yul\":1512:1542   */\n      tag_126\n      jump\t// in\n    tag_193:\n        /* \"#utility.yul\":1415:1548   */\n      swap3\n      swap2\n      pop\n      pop\n      jump\t// out\n        /* \"#utility.yul\":1554:2167   */\n    tag_11:\n        /* \"#utility.yul\":1628:1634   */\n      0x00\n        /* \"#utility.yul\":1636:1642   */\n      dup1\n        /* \"#utility.yul\":1644:1650   */\n      0x00\n        /* \"#utility.yul\":1693:1695   */\n      0x60\n        /* \"#utility.yul\":1681:1690   */\n      dup5\n        /* \"#utility.yul\":1672:1679   */\n      dup7\n        /* \"#utility.yul\":1668:1691   */\n      sub\n        /* \"#utility.yul\":1664:1696   */\n      slt\n        /* \"#utility.yul\":1661:1780   */\n      iszero\n      tag_195\n      jumpi\n        /* \"#utility.yul\":1699:1778   */\n      tag_196\n      tag_116\n      jump\t// in\n    tag_196:\n        /* \"#utility.yul\":1661:1780   */\n    tag_195:\n        /* \"#utility.yul\":1819:1820   */\n      0x00\n        /* \"#utility.yul\":1844:1897   */\n      tag_197\n        /* \"#utility.yul\":1889:1896   */\n      dup7\n        /* \"#utility.yul\":1880:1886   */\n      dup3\n        /* \"#utility.yul\":1869:1878   */\n      dup8\n        /* \"#utility.yul\":1865:1887   */\n      add\n        /* \"#utility.yul\":1844:1897   */\n      tag_121\n      jump\t// in\n    tag_197:\n        /* \"#utility.yul\":1834:1897   */\n      swap4\n      pop\n        /* \"#utility.yul\":1790:1907   */\n      pop\n        /* \"#utility.yul\":1946:1948   */\n      0x20\n        /* \"#utility.yul\":1972:2025   */\n      tag_198\n        /* \"#utility.yul\":2017:2024   */\n      dup7\n        /* \"#utility.yul\":2008:2014   */\n      dup3\n        /* \"#utility.yul\":1997:2006   */\n      dup8\n        /* \"#utility.yul\":1993:2015   */\n      add\n        /* \"#utility.yul\":1972:2025   */\n      tag_124\n      jump\t// in\n    tag_198:\n        /* \"#utility.yul\":1962:2025   */\n      swap3\n      pop\n        /* \"#utility.yul\":1917:2035   */\n      pop\n        /* \"#utility.yul\":2074:2076   */\n      0x40\n        /* \"#utility.yul\":2100:2150   */\n      tag_199\n        /* \"#utility.yul\":2142:2149   */\n      dup7\n        /* \"#utility.yul\":2133:2139   */\n      dup3\n        /* \"#utility.yul\":2122:2131   */\n      dup8\n        /* \"#utility.yul\":2118:2140   */\n      add\n        /* \"#utility.yul\":2100:2150   */\n      tag_127\n      jump\t// in\n    tag_199:\n        /* \"#utility.yul\":2090:2150   */\n      swap2\n      pop\n        /* \"#utility.yul\":2045:2160   */\n      pop\n        /* \"#utility.yul\":1554:2167   */\n      swap3\n      pop\n      swap3\n      pop\n      swap3\n      jump\t// out\n        /* \"#utility.yul\":2173:2266   */\n    tag_128:\n        /* \"#utility.yul\":2209:2216   */\n      0x00\n        /* \"#utility.yul\":2249:2259   */\n      0xffffffff\n        /* \"#utility.yul\":2242:2247   */\n      dup3\n        /* \"#utility.yul\":2238:2260   */\n      and\n        /* \"#utility.yul\":2227:2260   */\n      swap1\n      pop\n        /* \"#utility.yul\":2173:2266   */\n      swap2\n      swap1\n      pop\n      jump\t// out\n        /* \"#utility.yul\":2272:2392   */\n    tag_129:\n        /* \"#utility.yul\":2344:2367   */\n      tag_202\n        /* \"#utility.yul\":2361:2366   */\n      dup2\n        /* \"#utility.yul\":2344:2367   */\n      tag_128\n      jump\t// in\n    tag_202:\n        /* \"#utility.yul\":2337:2342   */\n      dup2\n        /* \"#utility.yul\":2334:2368   */\n      eq\n        /* \"#utility.yul\":2324:2386   */\n      tag_203\n      jumpi\n        /* \"#utility.yul\":2382:2383   */\n      0x00\n        /* \"#utility.yul\":2379:2380   */\n      dup1\n        /* \"#utility.yul\":2372:2384   */\n      revert\n        /* \"#utility.yul\":2324:2386   */\n    tag_203:\n        /* \"#utility.yul\":2272:2392   */\n      pop\n      jump\t// out\n        /* \"#utility.yul\":2398:2535   */\n    tag_130:\n        /* \"#utility.yul\":2443:2448   */\n      0x00\n        /* \"#utility.yul\":2481:2487   */\n      dup2\n        /* \"#utility.yul\":2468:2488   */\n      calldataload\n        /* \"#utility.yul\":2459:2488   */\n      swap1\n      pop\n        /* \"#utility.yul\":2497:2529   */\n      tag_205\n        /* \"#utility.yul\":2523:2528   */\n      dup2\n        /* \"#utility.yul\":2497:2529   */\n      tag_129\n      jump\t// in\n    tag_205:\n        /* \"#utility.yul\":2398:2535   */\n      swap3\n      swap2\n      pop\n      pop\n      jump\t// out\n        /* \"#utility.yul\":2541:2658   */\n    tag_131:\n        /* \"#utility.yul\":2650:2651   */\n      0x00\n        /* \"#utility.yul\":2647:2648   */\n      dup1\n        /* \"#utility.yul\":2640:2652   */\n      revert\n        /* \"#utility.yul\":2664:2781   */\n    tag_132:\n        /* \"#utility.yul\":2773:2774   */\n      0x00\n        /* \"#utility.yul\":2770:2771   */\n      dup1\n        /* \"#utility.yul\":2763:2775   */\n      revert\n        /* \"#utility.yul\":2787:2889   */\n    tag_133:\n        /* \"#utility.yul\":2828:2834   */\n      0x00\n        /* \"#utility.yul\":2879:2881   */\n      0x1f\n        /* \"#utility.yul\":2875:2882   */\n      not\n        /* \"#utility.yul\":2870:2872   */\n      0x1f\n        /* \"#utility.yul\":2863:2868   */\n      dup4\n        /* \"#utility.yul\":2859:2873   */\n      add\n        /* \"#utility.yul\":2855:2883   */\n      and\n        /* \"#utility.yul\":2845:2883   */\n      swap1\n      pop\n        /* \"#utility.yul\":2787:2889   */\n      swap2\n      swap1\n      pop\n      jump\t// out\n        /* \"#utility.yul\":2895:3075   */\n    tag_134:\n        /* \"#utility.yul\":2943:3020   */\n      0x4e487b7100000000000000000000000000000000000000000000000000000000\n        /* \"#utility.yul\":2940:2941   */\n      0x00\n        /* \"#utility.yul\":2933:3021   */\n      mstore\n        /* \"#utility.yul\":3040:3044   */\n      0x41\n        /* \"#utility.yul\":3037:3038   */\n      0x04\n        /* \"#utility.yul\":3030:3045   */\n      mstore\n        /* \"#utility.yul\":3064:3068   */\n      0x24\n        /* \"#utility.yul\":3061:3062   */\n      0x00\n        /* \"#utility.yul\":3054:3069   */\n      revert\n        /* \"#utility.yul\":3081:3362   */\n    tag_135:\n        /* \"#utility.yul\":3164:3191   */\n      tag_211\n        /* \"#utility.yul\":3186:3190   */\n      dup3\n        /* \"#utility.yul\":3164:3191   */\n      tag_133\n      jump\t// in\n    tag_211:\n        /* \"#utility.yul\":3156:3162   */\n      dup2\n        /* \"#utility.yul\":3152:3192   */\n      add\n        /* \"#utility.yul\":3294:3300   */\n      dup2\n        /* \"#utility.yul\":3282:3292   */\n      dup2\n        /* \"#utility.yul\":3279:3301   */\n      lt\n        /* \"#utility.yul\":3258:3276   */\n      0xffffffffffffffff\n        /* \"#utility.yul\":3246:3256   */\n      dup3\n        /* \"#utility.yul\":3243:3277   */\n      gt\n        /* \"#utility.yul\":3240:3302   */\n      or\n        /* \"#utility.yul\":3237:3325   */\n      iszero\n      tag_212\n      jumpi\n        /* \"#utility.yul\":3305:3323   */\n      tag_213\n      tag_134\n      jump\t// in\n    tag_213:\n        /* \"#utility.yul\":3237:3325   */\n    tag_212:\n        /* \"#utility.yul\":3345:3355   */\n      dup1\n        /* \"#utility.yul\":3341:3343   */\n      0x40\n        /* \"#utility.yul\":3334:3356   */\n      mstore\n        /* \"#utility.yul\":3124:3362   */\n      pop\n        /* \"#utility.yul\":3081:3362   */\n      pop\n      pop\n      jump\t// out\n        /* \"#utility.yul\":3368:3497   */\n    tag_136:\n        /* \"#utility.yul\":3402:3408   */\n      0x00\n        /* \"#utility.yul\":3429:3449   */\n      tag_215\n      tag_115\n      jump\t// in\n    tag_215:\n        /* \"#utility.yul\":3419:3449   */\n      swap1\n      pop\n        /* \"#utility.yul\":3458:3491   */\n      tag_216\n        /* \"#utility.yul\":3486:3490   */\n      dup3\n        /* \"#utility.yul\":3478:3484   */\n      dup3\n        /* \"#utility.yul\":3458:3491   */\n      tag_135\n      jump\t// in\n    tag_216:\n        /* \"#utility.yul\":3368:3497   */\n      swap2\n      swap1\n      pop\n      jump\t// out\n        /* \"#utility.yul\":3503:3810   */\n    tag_137:\n        /* \"#utility.yul\":3564:3568   */\n      0x00\n        /* \"#utility.yul\":3654:3672   */\n      0xffffffffffffffff\n        /* \"#utility.yul\":3646:3652   */\n      dup3\n        /* \"#utility.yul\":3643:3673   */\n      gt\n        /* \"#utility.yul\":3640:3696   */\n      iszero\n      tag_218\n      jumpi\n        /* \"#utility.yul\":3676:3694   */\n      tag_219\n      tag_134\n      jump\t// in\n    tag_219:\n        /* \"#utility.yul\":3640:3696   */\n    tag_218:\n        /* \"#utility.yul\":3714:3743   */\n      tag_220\n        /* \"#utility.yul\":3736:3742   */\n      dup3\n        /* \"#utility.yul\":3714:3743   */\n      tag_133\n      jump\t// in\n    tag_220:\n        /* \"#utility.yul\":3706:3743   */\n      swap1\n      pop\n        /* \"#utility.yul\":3798:3802   */\n      0x20\n        /* \"#utility.yul\":3792:3796   */\n      dup2\n        /* \"#utility.yul\":3788:3803   */\n      add\n        /* \"#utility.yul\":3780:3803   */\n      swap1\n      pop\n        /* \"#utility.yul\":3503:3810   */\n      swap2\n      swap1\n      pop\n      jump\t// out\n        /* \"#utility.yul\":3816:3962   */\n    tag_138:\n        /* \"#utility.yul\":3913:3919   */\n      dup3\n        /* \"#utility.yul\":3908:3911   */\n      dup2\n        /* \"#utility.yul\":3903:3906   */\n      dup4\n        /* \"#utility.yul\":3890:3920   */\n      calldatacopy\n        /* \"#utility.yul\":3954:3955   */\n      0x00\n        /* \"#utility.yul\":3945:3951   */\n      dup4\n        /* \"#utility.yul\":3940:3943   */\n      dup4\n        /* \"#utility.yul\":3936:3952   */\n      add\n        /* \"#utility.yul\":3929:3956   */\n      mstore\n        /* \"#utility.yul\":3816:3962   */\n      pop\n      pop\n      pop\n      jump\t// out\n        /* \"#utility.yul\":3968:4391   */\n    tag_139:\n        /* \"#utility.yul\":4045:4050   */\n      0x00\n        /* \"#utility.yul\":4070:4135   */\n      tag_223\n        /* \"#utility.yul\":4086:4134   */\n      tag_224\n        /* \"#utility.yul\":4127:4133   */\n      dup5\n        /* \"#utility.yul\":4086:4134   */\n      tag_137\n      jump\t// in\n    tag_224:\n        /* \"#utility.yul\":4070:4135   */\n      tag_136\n      jump\t// in\n    tag_223:\n        /* \"#utility.yul\":4061:4135   */\n      swap1\n      pop\n        /* \"#utility.yul\":4158:4164   */\n      dup3\n        /* \"#utility.yul\":4151:4156   */\n      dup2\n        /* \"#utility.yul\":4144:4165   */\n      mstore\n        /* \"#utility.yul\":4196:4200   */\n      0x20\n        /* \"#utility.yul\":4189:4194   */\n      dup2\n        /* \"#utility.yul\":4185:4201   */\n      add\n        /* \"#utility.yul\":4234:4237   */\n      dup5\n        /* \"#utility.yul\":4225:4231   */\n      dup5\n        /* \"#utility.yul\":4220:4223   */\n      dup5\n        /* \"#utility.yul\":4216:4232   */\n      add\n        /* \"#utility.yul\":4213:4238   */\n      gt\n        /* \"#utility.yul\":4210:4322   */\n      iszero\n      tag_225\n      jumpi\n        /* \"#utility.yul\":4241:4320   */\n      tag_226\n      tag_132\n      jump\t// in\n    tag_226:\n        /* \"#utility.yul\":4210:4322   */\n    tag_225:\n        /* \"#utility.yul\":4331:4385   */\n      tag_227\n        /* \"#utility.yul\":4378:4384   */\n      dup5\n        /* \"#utility.yul\":4373:4376   */\n      dup3\n        /* \"#utility.yul\":4368:4371   */\n      dup6\n        /* \"#utility.yul\":4331:4385   */\n      tag_138\n      jump\t// in\n    tag_227:\n        /* \"#utility.yul\":4051:4391   */\n      pop\n        /* \"#utility.yul\":3968:4391   */\n      swap4\n      swap3\n      pop\n      pop\n      pop\n      jump\t// out\n        /* \"#utility.yul\":4410:4748   */\n    tag_140:\n        /* \"#utility.yul\":4465:4470   */\n      0x00\n        /* \"#utility.yul\":4514:4517   */\n      dup3\n        /* \"#utility.yul\":4507:4511   */\n      0x1f\n        /* \"#utility.yul\":4499:4505   */\n      dup4\n        /* \"#utility.yul\":4495:4512   */\n      add\n        /* \"#utility.yul\":4491:4518   */\n      slt\n        /* \"#utility.yul\":4481:4603   */\n      tag_229\n      jumpi\n        /* \"#utility.yul\":4522:4601   */\n      tag_230\n      tag_131\n      jump\t// in\n    tag_230:\n        /* \"#utility.yul\":4481:4603   */\n    tag_229:\n        /* \"#utility.yul\":4639:4645   */\n      dup2\n        /* \"#utility.yul\":4626:4646   */\n      calldataload\n        /* \"#utility.yul\":4664:4742   */\n      tag_231\n        /* \"#utility.yul\":4738:4741   */\n      dup5\n        /* \"#utility.yul\":4730:4736   */\n      dup3\n        /* \"#utility.yul\":4723:4727   */\n      0x20\n        /* \"#utility.yul\":4715:4721   */\n      dup7\n        /* \"#utility.yul\":4711:4728   */\n      add\n        /* \"#utility.yul\":4664:4742   */\n      tag_139\n      jump\t// in\n    tag_231:\n        /* \"#utility.yul\":4655:4742   */\n      swap2\n      pop\n        /* \"#utility.yul\":4471:4748   */\n      pop\n        /* \"#utility.yul\":4410:4748   */\n      swap3\n      swap2\n      pop\n      pop\n      jump\t// out\n        /* \"#utility.yul\":4754:5549   */\n    tag_15:\n        /* \"#utility.yul\":4839:4845   */\n      0x00\n        /* \"#utility.yul\":4847:4853   */\n      dup1\n        /* \"#utility.yul\":4855:4861   */\n      0x00\n        /* \"#utility.yul\":4904:4906   */\n      0x60\n        /* \"#utility.yul\":4892:4901   */\n      dup5\n        /* \"#utility.yul\":4883:4890   */\n      dup7\n        /* \"#utility.yul\":4879:4902   */\n      sub\n        /* \"#utility.yul\":4875:4907   */\n      slt\n        /* \"#utility.yul\":4872:4991   */\n      iszero\n      tag_233\n      jumpi\n        /* \"#utility.yul\":4910:4989   */\n      tag_234\n      tag_116\n      jump\t// in\n    tag_234:\n        /* \"#utility.yul\":4872:4991   */\n    tag_233:\n        /* \"#utility.yul\":5030:5031   */\n      0x00\n        /* \"#utility.yul\":5055:5108   */\n      tag_235\n        /* \"#utility.yul\":5100:5107   */\n      dup7\n        /* \"#utility.yul\":5091:5097   */\n      dup3\n        /* \"#utility.yul\":5080:5089   */\n      dup8\n        /* \"#utility.yul\":5076:5098   */\n      add\n        /* \"#utility.yul\":5055:5108   */\n      tag_121\n      jump\t// in\n    tag_235:\n        /* \"#utility.yul\":5045:5108   */\n      swap4\n      pop\n        /* \"#utility.yul\":5001:5118   */\n      pop\n        /* \"#utility.yul\":5157:5159   */\n      0x20\n        /* \"#utility.yul\":5183:5235   */\n      tag_236\n        /* \"#utility.yul\":5227:5234   */\n      dup7\n        /* \"#utility.yul\":5218:5224   */\n      dup3\n        /* \"#utility.yul\":5207:5216   */\n      dup8\n        /* \"#utility.yul\":5203:5225   */\n      add\n        /* \"#utility.yul\":5183:5235   */\n      tag_130\n      jump\t// in\n    tag_236:\n        /* \"#utility.yul\":5173:5235   */\n      swap3\n      pop\n        /* \"#utility.yul\":5128:5245   */\n      pop\n        /* \"#utility.yul\":5312:5314   */\n      0x40\n        /* \"#utility.yul\":5301:5310   */\n      dup5\n        /* \"#utility.yul\":5297:5315   */\n      add\n        /* \"#utility.yul\":5284:5316   */\n      calldataload\n        /* \"#utility.yul\":5343:5361   */\n      0xffffffffffffffff\n        /* \"#utility.yul\":5335:5341   */\n      dup2\n        /* \"#utility.yul\":5332:5362   */\n      gt\n        /* \"#utility.yul\":5329:5446   */\n      iszero\n      tag_237\n      jumpi\n        /* \"#utility.yul\":5365:5444   */\n      tag_238\n      tag_117\n      jump\t// in\n    tag_238:\n        /* \"#utility.yul\":5329:5446   */\n    tag_237:\n        /* \"#utility.yul\":5470:5532   */\n      tag_239\n        /* \"#utility.yul\":5524:5531   */\n      dup7\n        /* \"#utility.yul\":5515:5521   */\n      dup3\n        /* \"#utility.yul\":5504:5513   */\n      dup8\n        /* \"#utility.yul\":5500:5522   */\n      add\n        /* \"#utility.yul\":5470:5532   */\n      tag_140\n      jump\t// in\n    tag_239:\n        /* \"#utility.yul\":5460:5532   */\n      swap2\n      pop\n        /* \"#utility.yul\":5255:5542   */\n      pop\n        /* \"#utility.yul\":4754:5549   */\n      swap3\n      pop\n      swap3\n      pop\n      swap3\n      jump\t// out\n        /* \"#utility.yul\":5555:5673   */\n    tag_141:\n        /* \"#utility.yul\":5642:5666   */\n      tag_241\n        /* \"#utility.yul\":5660:5665   */\n      dup2\n        /* \"#utility.yul\":5642:5666   */\n      tag_119\n      jump\t// in\n    tag_241:\n        /* \"#utility.yul\":5637:5640   */\n      dup3\n        /* \"#utility.yul\":5630:5667   */\n      mstore\n        /* \"#utility.yul\":5555:5673   */\n      pop\n      pop\n      jump\t// out\n        /* \"#utility.yul\":5679:5901   */\n    tag_21:\n        /* \"#utility.yul\":5772:5776   */\n      0x00\n        /* \"#utility.yul\":5810:5812   */\n      0x20\n        /* \"#utility.yul\":5799:5808   */\n      dup3\n        /* \"#utility.yul\":5795:5813   */\n      add\n        /* \"#utility.yul\":5787:5813   */\n      swap1\n      pop\n        /* \"#utility.yul\":5823:5894   */\n      tag_243\n        /* \"#utility.yul\":5891:5892   */\n      0x00\n        /* \"#utility.yul\":5880:5889   */\n      dup4\n        /* \"#utility.yul\":5876:5893   */\n      add\n        /* \"#utility.yul\":5867:5873   */\n      dup5\n        /* \"#utility.yul\":5823:5894   */\n      tag_141\n      jump\t// in\n    tag_243:\n        /* \"#utility.yul\":5679:5901   */\n      swap3\n      swap2\n      pop\n      pop\n      jump\t// out\n        /* \"#utility.yul\":5907:5967   */\n    tag_142:\n        /* \"#utility.yul\":5935:5938   */\n      0x00\n        /* \"#utility.yul\":5956:5961   */\n      dup2\n        /* \"#utility.yul\":5949:5961   */\n      swap1\n      pop\n        /* \"#utility.yul\":5907:5967   */\n      swap2\n      swap1\n      pop\n      jump\t// out\n        /* \"#utility.yul\":5973:6115   */\n    tag_143:\n        /* \"#utility.yul\":6023:6032   */\n      0x00\n        /* \"#utility.yul\":6056:6109   */\n      tag_246\n        /* \"#utility.yul\":6074:6108   */\n      tag_247\n        /* \"#utility.yul\":6083:6107   */\n      tag_248\n        /* \"#utility.yul\":6101:6106   */\n      dup5\n        /* \"#utility.yul\":6083:6107   */\n      tag_118\n      jump\t// in\n    tag_248:\n        /* \"#utility.yul\":6074:6108   */\n      tag_142\n      jump\t// in\n    tag_247:\n        /* \"#utility.yul\":6056:6109   */\n      tag_118\n      jump\t// in\n    tag_246:\n        /* \"#utility.yul\":6043:6109   */\n      swap1\n      pop\n        /* \"#utility.yul\":5973:6115   */\n      swap2\n      swap1\n      pop\n      jump\t// out\n        /* \"#utility.yul\":6121:6247   */\n    tag_144:\n        /* \"#utility.yul\":6171:6180   */\n      0x00\n        /* \"#utility.yul\":6204:6241   */\n      tag_250\n        /* \"#utility.yul\":6235:6240   */\n      dup3\n        /* \"#utility.yul\":6204:6241   */\n      tag_143\n      jump\t// in\n    tag_250:\n        /* \"#utility.yul\":6191:6241   */\n      swap1\n      pop\n        /* \"#utility.yul\":6121:6247   */\n      swap2\n      swap1\n      pop\n      jump\t// out\n        /* \"#utility.yul\":6253:6407   */\n    tag_145:\n        /* \"#utility.yul\":6331:6340   */\n      0x00\n        /* \"#utility.yul\":6364:6401   */\n      tag_252\n        /* \"#utility.yul\":6395:6400   */\n      dup3\n        /* \"#utility.yul\":6364:6401   */\n      tag_144\n      jump\t// in\n    tag_252:\n        /* \"#utility.yul\":6351:6401   */\n      swap1\n      pop\n        /* \"#utility.yul\":6253:6407   */\n      swap2\n      swap1\n      pop\n      jump\t// out\n        /* \"#utility.yul\":6413:6600   */\n    tag_146:\n        /* \"#utility.yul\":6528:6593   */\n      tag_254\n        /* \"#utility.yul\":6587:6592   */\n      dup2\n        /* \"#utility.yul\":6528:6593   */\n      tag_145\n      jump\t// in\n    tag_254:\n        /* \"#utility.yul\":6523:6526   */\n      dup3\n        /* \"#utility.yul\":6516:6594   */\n      mstore\n        /* \"#utility.yul\":6413:6600   */\n      pop\n      pop\n      jump\t// out\n        /* \"#utility.yul\":6606:6884   */\n    tag_26:\n        /* \"#utility.yul\":6727:6731   */\n      0x00\n        /* \"#utility.yul\":6765:6767   */\n      0x20\n        /* \"#utility.yul\":6754:6763   */\n      dup3\n        /* \"#utility.yul\":6750:6768   */\n      add\n        /* \"#utility.yul\":6742:6768   */\n      swap1\n      pop\n        /* \"#utility.yul\":6778:6877   */\n      tag_256\n        /* \"#utility.yul\":6874:6875   */\n      0x00\n        /* \"#utility.yul\":6863:6872   */\n      dup4\n        /* \"#utility.yul\":6859:6876   */\n      add\n        /* \"#utility.yul\":6850:6856   */\n      dup5\n        /* \"#utility.yul\":6778:6877   */\n      tag_146\n      jump\t// in\n    tag_256:\n        /* \"#utility.yul\":6606:6884   */\n      swap3\n      swap2\n      pop\n      pop\n      jump\t// out\n        /* \"#utility.yul\":6890:7005   */\n    tag_147:\n        /* \"#utility.yul\":6975:6998   */\n      tag_258\n        /* \"#utility.yul\":6992:6997   */\n      dup2\n        /* \"#utility.yul\":6975:6998   */\n      tag_128\n      jump\t// in\n    tag_258:\n        /* \"#utility.yul\":6970:6973   */\n      dup3\n        /* \"#utility.yul\":6963:6999   */\n      mstore\n        /* \"#utility.yul\":6890:7005   */\n      pop\n      pop\n      jump\t// out\n        /* \"#utility.yul\":7011:7229   */\n    tag_31:\n        /* \"#utility.yul\":7102:7106   */\n      0x00\n        /* \"#utility.yul\":7140:7142   */\n      0x20\n        /* \"#utility.yul\":7129:7138   */\n      dup3\n        /* \"#utility.yul\":7125:7143   */\n      add\n        /* \"#utility.yul\":7117:7143   */\n      swap1\n      pop\n        /* \"#utility.yul\":7153:7222   */\n      tag_260\n        /* \"#utility.yul\":7219:7220   */\n      0x00\n        /* \"#utility.yul\":7208:7217   */\n      dup4\n        /* \"#utility.yul\":7204:7221   */\n      add\n        /* \"#utility.yul\":7195:7201   */\n      dup5\n        /* \"#utility.yul\":7153:7222   */\n      tag_147\n      jump\t// in\n    tag_260:\n        /* \"#utility.yul\":7011:7229   */\n      swap3\n      swap2\n      pop\n      pop\n      jump\t// out\n        /* \"#utility.yul\":7235:7374   */\n    tag_148:\n        /* \"#utility.yul\":7298:7307   */\n      0x00\n        /* \"#utility.yul\":7331:7368   */\n      tag_262\n        /* \"#utility.yul\":7362:7367   */\n      dup3\n        /* \"#utility.yul\":7331:7368   */\n      tag_144\n      jump\t// in\n    tag_262:\n        /* \"#utility.yul\":7318:7368   */\n      swap1\n      pop\n        /* \"#utility.yul\":7235:7374   */\n      swap2\n      swap1\n      pop\n      jump\t// out\n        /* \"#utility.yul\":7380:7537   */\n    tag_149:\n        /* \"#utility.yul\":7480:7530   */\n      tag_264\n        /* \"#utility.yul\":7524:7529   */\n      dup2\n        /* \"#utility.yul\":7480:7530   */\n      tag_148\n      jump\t// in\n    tag_264:\n        /* \"#utility.yul\":7475:7478   */\n      dup3\n        /* \"#utility.yul\":7468:7531   */\n      mstore\n        /* \"#utility.yul\":7380:7537   */\n      pop\n      pop\n      jump\t// out\n        /* \"#utility.yul\":7543:7791   */\n    tag_36:\n        /* \"#utility.yul\":7649:7653   */\n      0x00\n        /* \"#utility.yul\":7687:7689   */\n      0x20\n        /* \"#utility.yul\":7676:7685   */\n      dup3\n        /* \"#utility.yul\":7672:7690   */\n      add\n        /* \"#utility.yul\":7664:7690   */\n      swap1\n      pop\n        /* \"#utility.yul\":7700:7784   */\n      tag_266\n        /* \"#utility.yul\":7781:7782   */\n      0x00\n        /* \"#utility.yul\":7770:7779   */\n      dup4\n        /* \"#utility.yul\":7766:7783   */\n      add\n        /* \"#utility.yul\":7757:7763   */\n      dup5\n        /* \"#utility.yul\":7700:7784   */\n      tag_149\n      jump\t// in\n    tag_266:\n        /* \"#utility.yul\":7543:7791   */\n      swap3\n      swap2\n      pop\n      pop\n      jump\t// out\n        /* \"#utility.yul\":7797:7915   */\n    tag_150:\n        /* \"#utility.yul\":7884:7908   */\n      tag_268\n        /* \"#utility.yul\":7902:7907   */\n      dup2\n        /* \"#utility.yul\":7884:7908   */\n      tag_122\n      jump\t// in\n    tag_268:\n        /* \"#utility.yul\":7879:7882   */\n      dup3\n        /* \"#utility.yul\":7872:7909   */\n      mstore\n        /* \"#utility.yul\":7797:7915   */\n      pop\n      pop\n      jump\t// out\n        /* \"#utility.yul\":7921:8253   */\n    tag_41:\n        /* \"#utility.yul\":8042:8046   */\n      0x00\n        /* \"#utility.yul\":8080:8082   */\n      0x40\n        /* \"#utility.yul\":8069:8078   */\n      dup3\n        /* \"#utility.yul\":8065:8083   */\n      add\n        /* \"#utility.yul\":8057:8083   */\n      swap1\n      pop\n        /* \"#utility.yul\":8093:8164   */\n      tag_270\n        /* \"#utility.yul\":8161:8162   */\n      0x00\n        /* \"#utility.yul\":8150:8159   */\n      dup4\n        /* \"#utility.yul\":8146:8163   */\n      add\n        /* \"#utility.yul\":8137:8143   */\n      dup6\n        /* \"#utility.yul\":8093:8164   */\n      tag_141\n      jump\t// in\n    tag_270:\n        /* \"#utility.yul\":8174:8246   */\n      tag_271\n        /* \"#utility.yul\":8242:8244   */\n      0x20\n        /* \"#utility.yul\":8231:8240   */\n      dup4\n        /* \"#utility.yul\":8227:8245   */\n      add\n        /* \"#utility.yul\":8218:8224   */\n      dup5\n        /* \"#utility.yul\":8174:8246   */\n      tag_150\n      jump\t// in\n    tag_271:\n        /* \"#utility.yul\":7921:8253   */\n      swap4\n      swap3\n      pop\n      pop\n      pop\n      jump\t// out\n        /* \"#utility.yul\":8259:8428   */\n    tag_151:\n        /* \"#utility.yul\":8343:8354   */\n      0x00\n        /* \"#utility.yul\":8377:8383   */\n      dup3\n        /* \"#utility.yul\":8372:8375   */\n      dup3\n        /* \"#utility.yul\":8365:8384   */\n      mstore\n        /* \"#utility.yul\":8417:8421   */\n      0x20\n        /* \"#utility.yul\":8412:8415   */\n      dup3\n        /* \"#utility.yul\":8408:8422   */\n      add\n        /* \"#utility.yul\":8393:8422   */\n      swap1\n      pop\n        /* \"#utility.yul\":8259:8428   */\n      swap3\n      swap2\n      pop\n      pop\n      jump\t// out\n        /* \"#utility.yul\":8434:8676   */\n    tag_152:\n        /* \"#utility.yul\":8574:8608   */\n      0x546f6b656e577261707065643a3a506f6c79676f6e427269646765426173653a\n        /* \"#utility.yul\":8570:8571   */\n      0x00\n        /* \"#utility.yul\":8562:8568   */\n      dup3\n        /* \"#utility.yul\":8558:8572   */\n      add\n        /* \"#utility.yul\":8551:8609   */\n      mstore\n        /* \"#utility.yul\":8643:8668   */\n      0x204e6f7420506f6c79676f6e5a6b45564d427269646765000000000000000000\n        /* \"#utility.yul\":8638:8640   */\n      0x20\n        /* \"#utility.yul\":8630:8636   */\n      dup3\n        /* \"#utility.yul\":8626:8641   */\n      add\n        /* \"#utility.yul\":8619:8669   */\n      mstore\n        /* \"#utility.yul\":8434:8676   */\n      pop\n      jump\t// out\n        /* \"#utility.yul\":8682:9048   */\n    tag_153:\n        /* \"#utility.yul\":8824:8827   */\n      0x00\n        /* \"#utility.yul\":8845:8912   */\n      tag_275\n        /* \"#utility.yul\":8909:8911   */\n      0x37\n        /* \"#utility.yul\":8904:8907   */\n      dup4\n        /* \"#utility.yul\":8845:8912   */\n      tag_151\n      jump\t// in\n    tag_275:\n        /* \"#utility.yul\":8838:8912   */\n      swap2\n      pop\n        /* \"#utility.yul\":8921:9014   */\n      tag_276\n        /* \"#utility.yul\":9010:9013   */\n      dup3\n        /* \"#utility.yul\":8921:9014   */\n      tag_152\n      jump\t// in\n    tag_276:\n        /* \"#utility.yul\":9039:9041   */\n      0x40\n        /* \"#utility.yul\":9034:9037   */\n      dup3\n        /* \"#utility.yul\":9030:9042   */\n      add\n        /* \"#utility.yul\":9023:9042   */\n      swap1\n      pop\n        /* \"#utility.yul\":8682:9048   */\n      swap2\n      swap1\n      pop\n      jump\t// out\n        /* \"#utility.yul\":9054:9473   */\n    tag_48:\n        /* \"#utility.yul\":9220:9224   */\n      0x00\n        /* \"#utility.yul\":9258:9260   */\n      0x20\n        /* \"#utility.yul\":9247:9256   */\n      dup3\n        /* \"#utility.yul\":9243:9261   */\n      add\n        /* \"#utility.yul\":9235:9261   */\n      swap1\n      pop\n        /* \"#utility.yul\":9307:9316   */\n      dup2\n        /* \"#utility.yul\":9301:9305   */\n      dup2\n        /* \"#utility.yul\":9297:9317   */\n      sub\n        /* \"#utility.yul\":9293:9294   */\n      0x00\n        /* \"#utility.yul\":9282:9291   */\n      dup4\n        /* \"#utility.yul\":9278:9295   */\n      add\n        /* \"#utility.yul\":9271:9318   */\n      mstore\n        /* \"#utility.yul\":9335:9466   */\n      tag_278\n        /* \"#utility.yul\":9461:9465   */\n      dup2\n        /* \"#utility.yul\":9335:9466   */\n      tag_153\n      jump\t// in\n    tag_278:\n        /* \"#utility.yul\":9327:9466   */\n      swap1\n      pop\n        /* \"#utility.yul\":9054:9473   */\n      swap2\n      swap1\n      pop\n      jump\t// out\n        /* \"#utility.yul\":9479:9723   */\n    tag_154:\n        /* \"#utility.yul\":9619:9653   */\n      0x546f6b656e577261707065643a3a506f6c79676f6e427269646765426173653a\n        /* \"#utility.yul\":9615:9616   */\n      0x00\n        /* \"#utility.yul\":9607:9613   */\n      dup3\n        /* \"#utility.yul\":9603:9617   */\n      add\n        /* \"#utility.yul\":9596:9654   */\n      mstore\n        /* \"#utility.yul\":9688:9715   */\n      0x204e6f7420636f756e7465727061727420636f6e747261637400000000000000\n        /* \"#utility.yul\":9683:9685   */\n      0x20\n        /* \"#utility.yul\":9675:9681   */\n      dup3\n        /* \"#utility.yul\":9671:9686   */\n      add\n        /* \"#utility.yul\":9664:9716   */\n      mstore\n        /* \"#utility.yul\":9479:9723   */\n      pop\n      jump\t// out\n        /* \"#utility.yul\":9729:10095   */\n    tag_155:\n        /* \"#utility.yul\":9871:9874   */\n      0x00\n        /* \"#utility.yul\":9892:9959   */\n      tag_281\n        /* \"#utility.yul\":9956:9958   */\n      0x39\n        /* \"#utility.yul\":9951:9954   */\n      dup4\n        /* \"#utility.yul\":9892:9959   */\n      tag_151\n      jump\t// in\n    tag_281:\n        /* \"#utility.yul\":9885:9959   */\n      swap2\n      pop\n        /* \"#utility.yul\":9968:10061   */\n      tag_282\n        /* \"#utility.yul\":10057:10060   */\n      dup3\n        /* \"#utility.yul\":9968:10061   */\n      tag_154\n      jump\t// in\n    tag_282:\n        /* \"#utility.yul\":10086:10088   */\n      0x40\n        /* \"#utility.yul\":10081:10084   */\n      dup3\n        /* \"#utility.yul\":10077:10089   */\n      add\n        /* \"#utility.yul\":10070:10089   */\n      swap1\n      pop\n        /* \"#utility.yul\":9729:10095   */\n      swap2\n      swap1\n      pop\n      jump\t// out\n        /* \"#utility.yul\":10101:10520   */\n    tag_51:\n        /* \"#utility.yul\":10267:10271   */\n      0x00\n        /* \"#utility.yul\":10305:10307   */\n      0x20\n        /* \"#utility.yul\":10294:10303   */\n      dup3\n        /* \"#utility.yul\":10290:10308   */\n      add\n        /* \"#utility.yul\":10282:10308   */\n      swap1\n      pop\n        /* \"#utility.yul\":10354:10363   */\n      dup2\n        /* \"#utility.yul\":10348:10352   */\n      dup2\n        /* \"#utility.yul\":10344:10364   */\n      sub\n        /* \"#utility.yul\":10340:10341   */\n      0x00\n        /* \"#utility.yul\":10329:10338   */\n      dup4\n        /* \"#utility.yul\":10325:10342   */\n      add\n        /* \"#utility.yul\":10318:10365   */\n      mstore\n        /* \"#utility.yul\":10382:10513   */\n      tag_284\n        /* \"#utility.yul\":10508:10512   */\n      dup2\n        /* \"#utility.yul\":10382:10513   */\n      tag_155\n      jump\t// in\n    tag_284:\n        /* \"#utility.yul\":10374:10513   */\n      swap1\n      pop\n        /* \"#utility.yul\":10101:10520   */\n      swap2\n      swap1\n      pop\n      jump\t// out\n        /* \"#utility.yul\":10526:10769   */\n    tag_156:\n        /* \"#utility.yul\":10666:10700   */\n      0x546f6b656e577261707065643a3a506f6c79676f6e427269646765426173653a\n        /* \"#utility.yul\":10662:10663   */\n      0x00\n        /* \"#utility.yul\":10654:10660   */\n      dup3\n        /* \"#utility.yul\":10650:10664   */\n      add\n        /* \"#utility.yul\":10643:10701   */\n      mstore\n        /* \"#utility.yul\":10735:10761   */\n      0x204e6f7420636f756e74657270617274206e6574776f726b0000000000000000\n        /* \"#utility.yul\":10730:10732   */\n      0x20\n        /* \"#utility.yul\":10722:10728   */\n      dup3\n        /* \"#utility.yul\":10718:10733   */\n      add\n        /* \"#utility.yul\":10711:10762   */\n      mstore\n        /* \"#utility.yul\":10526:10769   */\n      pop\n      jump\t// out\n        /* \"#utility.yul\":10775:11141   */\n    tag_157:\n        /* \"#utility.yul\":10917:10920   */\n      0x00\n        /* \"#utility.yul\":10938:11005   */\n      tag_287\n        /* \"#utility.yul\":11002:11004   */\n      0x38\n        /* \"#utility.yul\":10997:11000   */\n      dup4\n        /* \"#utility.yul\":10938:11005   */\n      tag_151\n      jump\t// in\n    tag_287:\n        /* \"#utility.yul\":10931:11005   */\n      swap2\n      pop\n        /* \"#utility.yul\":11014:11107   */\n      tag_288\n        /* \"#utility.yul\":11103:11106   */\n      dup3\n        /* \"#utility.yul\":11014:11107   */\n      tag_156\n      jump\t// in\n    tag_288:\n        /* \"#utility.yul\":11132:11134   */\n      0x40\n        /* \"#utility.yul\":11127:11130   */\n      dup3\n        /* \"#utility.yul\":11123:11135   */\n      add\n        /* \"#utility.yul\":11116:11135   */\n      swap1\n      pop\n        /* \"#utility.yul\":10775:11141   */\n      swap2\n      swap1\n      pop\n      jump\t// out\n        /* \"#utility.yul\":11147:11566   */\n    tag_54:\n        /* \"#utility.yul\":11313:11317   */\n      0x00\n        /* \"#utility.yul\":11351:11353   */\n      0x20\n        /* \"#utility.yul\":11340:11349   */\n      dup3\n        /* \"#utility.yul\":11336:11354   */\n      add\n        /* \"#utility.yul\":11328:11354   */\n      swap1\n      pop\n        /* \"#utility.yul\":11400:11409   */\n      dup2\n        /* \"#utility.yul\":11394:11398   */\n      dup2\n        /* \"#utility.yul\":11390:11410   */\n      sub\n        /* \"#utility.yul\":11386:11387   */\n      0x00\n        /* \"#utility.yul\":11375:11384   */\n      dup4\n        /* \"#utility.yul\":11371:11388   */\n      add\n        /* \"#utility.yul\":11364:11411   */\n      mstore\n        /* \"#utility.yul\":11428:11559   */\n      tag_290\n        /* \"#utility.yul\":11554:11558   */\n      dup2\n        /* \"#utility.yul\":11428:11559   */\n      tag_157\n      jump\t// in\n    tag_290:\n        /* \"#utility.yul\":11420:11559   */\n      swap1\n      pop\n        /* \"#utility.yul\":11147:11566   */\n      swap2\n      swap1\n      pop\n      jump\t// out\n        /* \"#utility.yul\":11572:11681   */\n    tag_158:\n        /* \"#utility.yul\":11653:11674   */\n      tag_292\n        /* \"#utility.yul\":11668:11673   */\n      dup2\n        /* \"#utility.yul\":11653:11674   */\n      tag_125\n      jump\t// in\n    tag_292:\n        /* \"#utility.yul\":11648:11651   */\n      dup3\n        /* \"#utility.yul\":11641:11675   */\n      mstore\n        /* \"#utility.yul\":11572:11681   */\n      pop\n      pop\n      jump\t// out\n        /* \"#utility.yul\":11687:11785   */\n    tag_159:\n        /* \"#utility.yul\":11738:11744   */\n      0x00\n        /* \"#utility.yul\":11772:11777   */\n      dup2\n        /* \"#utility.yul\":11766:11778   */\n      mload\n        /* \"#utility.yul\":11756:11778   */\n      swap1\n      pop\n        /* \"#utility.yul\":11687:11785   */\n      swap2\n      swap1\n      pop\n      jump\t// out\n        /* \"#utility.yul\":11791:11959   */\n    tag_160:\n        /* \"#utility.yul\":11874:11885   */\n      0x00\n        /* \"#utility.yul\":11908:11914   */\n      dup3\n        /* \"#utility.yul\":11903:11906   */\n      dup3\n        /* \"#utility.yul\":11896:11915   */\n      mstore\n        /* \"#utility.yul\":11948:11952   */\n      0x20\n        /* \"#utility.yul\":11943:11946   */\n      dup3\n        /* \"#utility.yul\":11939:11953   */\n      add\n        /* \"#utility.yul\":11924:11953   */\n      swap1\n      pop\n        /* \"#utility.yul\":11791:11959   */\n      swap3\n      swap2\n      pop\n      pop\n      jump\t// out\n        /* \"#utility.yul\":11965:12211   */\n    tag_161:\n        /* \"#utility.yul\":12046:12047   */\n      0x00\n        /* \"#utility.yul\":12056:12169   */\n    tag_296:\n        /* \"#utility.yul\":12070:12076   */\n      dup4\n        /* \"#utility.yul\":12067:12068   */\n      dup2\n        /* \"#utility.yul\":12064:12077   */\n      lt\n        /* \"#utility.yul\":12056:12169   */\n      iszero\n      tag_298\n      jumpi\n        /* \"#utility.yul\":12155:12156   */\n      dup1\n        /* \"#utility.yul\":12150:12153   */\n      dup3\n        /* \"#utility.yul\":12146:12157   */\n      add\n        /* \"#utility.yul\":12140:12158   */\n      mload\n        /* \"#utility.yul\":12136:12137   */\n      dup2\n        /* \"#utility.yul\":12131:12134   */\n      dup5\n        /* \"#utility.yul\":12127:12138   */\n      add\n        /* \"#utility.yul\":12120:12159   */\n      mstore\n        /* \"#utility.yul\":12092:12094   */\n      0x20\n        /* \"#utility.yul\":12089:12090   */\n      dup2\n        /* \"#utility.yul\":12085:12095   */\n      add\n        /* \"#utility.yul\":12080:12095   */\n      swap1\n      pop\n        /* \"#utility.yul\":12056:12169   */\n      jump(tag_296)\n    tag_298:\n        /* \"#utility.yul\":12203:12204   */\n      0x00\n        /* \"#utility.yul\":12194:12200   */\n      dup5\n        /* \"#utility.yul\":12189:12192   */\n      dup5\n        /* \"#utility.yul\":12185:12201   */\n      add\n        /* \"#utility.yul\":12178:12205   */\n      mstore\n        /* \"#utility.yul\":12027:12211   */\n      pop\n        /* \"#utility.yul\":11965:12211   */\n      pop\n      pop\n      pop\n      jump\t// out\n        /* \"#utility.yul\":12217:12590   */\n    tag_162:\n        /* \"#utility.yul\":12303:12306   */\n      0x00\n        /* \"#utility.yul\":12331:12369   */\n      tag_300\n        /* \"#utility.yul\":12363:12368   */\n      dup3\n        /* \"#utility.yul\":12331:12369   */\n      tag_159\n      jump\t// in\n    tag_300:\n        /* \"#utility.yul\":12385:12455   */\n      tag_301\n        /* \"#utility.yul\":12448:12454   */\n      dup2\n        /* \"#utility.yul\":12443:12446   */\n      dup6\n        /* \"#utility.yul\":12385:12455   */\n      tag_160\n      jump\t// in\n    tag_301:\n        /* \"#utility.yul\":12378:12455   */\n      swap4\n      pop\n        /* \"#utility.yul\":12464:12529   */\n      tag_302\n        /* \"#utility.yul\":12522:12528   */\n      dup2\n        /* \"#utility.yul\":12517:12520   */\n      dup6\n        /* \"#utility.yul\":12510:12514   */\n      0x20\n        /* \"#utility.yul\":12503:12508   */\n      dup7\n        /* \"#utility.yul\":12499:12515   */\n      add\n        /* \"#utility.yul\":12464:12529   */\n      tag_161\n      jump\t// in\n    tag_302:\n        /* \"#utility.yul\":12554:12583   */\n      tag_303\n        /* \"#utility.yul\":12576:12582   */\n      dup2\n        /* \"#utility.yul\":12554:12583   */\n      tag_133\n      jump\t// in\n    tag_303:\n        /* \"#utility.yul\":12549:12552   */\n      dup5\n        /* \"#utility.yul\":12545:12584   */\n      add\n        /* \"#utility.yul\":12538:12584   */\n      swap2\n      pop\n        /* \"#utility.yul\":12307:12590   */\n      pop\n        /* \"#utility.yul\":12217:12590   */\n      swap3\n      swap2\n      pop\n      pop\n      jump\t// out\n        /* \"#utility.yul\":12596:13220   */\n    tag_62:\n        /* \"#utility.yul\":12783:12787   */\n      0x00\n        /* \"#utility.yul\":12821:12824   */\n      0x80\n        /* \"#utility.yul\":12810:12819   */\n      dup3\n        /* \"#utility.yul\":12806:12825   */\n      add\n        /* \"#utility.yul\":12798:12825   */\n      swap1\n      pop\n        /* \"#utility.yul\":12835:12904   */\n      tag_305\n        /* \"#utility.yul\":12901:12902   */\n      0x00\n        /* \"#utility.yul\":12890:12899   */\n      dup4\n        /* \"#utility.yul\":12886:12903   */\n      add\n        /* \"#utility.yul\":12877:12883   */\n      dup8\n        /* \"#utility.yul\":12835:12904   */\n      tag_147\n      jump\t// in\n    tag_305:\n        /* \"#utility.yul\":12914:12986   */\n      tag_306\n        /* \"#utility.yul\":12982:12984   */\n      0x20\n        /* \"#utility.yul\":12971:12980   */\n      dup4\n        /* \"#utility.yul\":12967:12985   */\n      add\n        /* \"#utility.yul\":12958:12964   */\n      dup7\n        /* \"#utility.yul\":12914:12986   */\n      tag_141\n      jump\t// in\n    tag_306:\n        /* \"#utility.yul\":12996:13062   */\n      tag_307\n        /* \"#utility.yul\":13058:13060   */\n      0x40\n        /* \"#utility.yul\":13047:13056   */\n      dup4\n        /* \"#utility.yul\":13043:13061   */\n      add\n        /* \"#utility.yul\":13034:13040   */\n      dup6\n        /* \"#utility.yul\":12996:13062   */\n      tag_158\n      jump\t// in\n    tag_307:\n        /* \"#utility.yul\":13109:13118   */\n      dup2\n        /* \"#utility.yul\":13103:13107   */\n      dup2\n        /* \"#utility.yul\":13099:13119   */\n      sub\n        /* \"#utility.yul\":13094:13096   */\n      0x60\n        /* \"#utility.yul\":13083:13092   */\n      dup4\n        /* \"#utility.yul\":13079:13097   */\n      add\n        /* \"#utility.yul\":13072:13120   */\n      mstore\n        /* \"#utility.yul\":13137:13213   */\n      tag_308\n        /* \"#utility.yul\":13208:13212   */\n      dup2\n        /* \"#utility.yul\":13199:13205   */\n      dup5\n        /* \"#utility.yul\":13137:13213   */\n      tag_162\n      jump\t// in\n    tag_308:\n        /* \"#utility.yul\":13129:13213   */\n      swap1\n      pop\n        /* \"#utility.yul\":12596:13220   */\n      swap6\n      swap5\n      pop\n      pop\n      pop\n      pop\n      pop\n      jump\t// out\n        /* \"#utility.yul\":13226:13330   */\n    tag_163:\n        /* \"#utility.yul\":13271:13278   */\n      0x00\n        /* \"#utility.yul\":13300:13324   */\n      tag_310\n        /* \"#utility.yul\":13318:13323   */\n      dup3\n        /* \"#utility.yul\":13300:13324   */\n      tag_118\n      jump\t// in\n    tag_310:\n        /* \"#utility.yul\":13289:13324   */\n      swap1\n      pop\n        /* \"#utility.yul\":13226:13330   */\n      swap2\n      swap1\n      pop\n      jump\t// out\n        /* \"#utility.yul\":13336:13474   */\n    tag_164:\n        /* \"#utility.yul\":13417:13449   */\n      tag_312\n        /* \"#utility.yul\":13443:13448   */\n      dup2\n        /* \"#utility.yul\":13417:13449   */\n      tag_163\n      jump\t// in\n    tag_312:\n        /* \"#utility.yul\":13410:13415   */\n      dup2\n        /* \"#utility.yul\":13407:13450   */\n      eq\n        /* \"#utility.yul\":13397:13468   */\n      tag_313\n      jumpi\n        /* \"#utility.yul\":13464:13465   */\n      0x00\n        /* \"#utility.yul\":13461:13462   */\n      dup1\n        /* \"#utility.yul\":13454:13466   */\n      revert\n        /* \"#utility.yul\":13397:13468   */\n    tag_313:\n        /* \"#utility.yul\":13336:13474   */\n      pop\n      jump\t// out\n        /* \"#utility.yul\":13480:13639   */\n    tag_165:\n        /* \"#utility.yul\":13545:13550   */\n      0x00\n        /* \"#utility.yul\":13576:13582   */\n      dup2\n        /* \"#utility.yul\":13570:13583   */\n      mload\n        /* \"#utility.yul\":13561:13583   */\n      swap1\n      pop\n        /* \"#utility.yul\":13592:13633   */\n      tag_315\n        /* \"#utility.yul\":13627:13632   */\n      dup2\n        /* \"#utility.yul\":13592:13633   */\n      tag_164\n      jump\t// in\n    tag_315:\n        /* \"#utility.yul\":13480:13639   */\n      swap3\n      swap2\n      pop\n      pop\n      jump\t// out\n        /* \"#utility.yul\":13645:13788   */\n    tag_166:\n        /* \"#utility.yul\":13702:13707   */\n      0x00\n        /* \"#utility.yul\":13733:13739   */\n      dup2\n        /* \"#utility.yul\":13727:13740   */\n      mload\n        /* \"#utility.yul\":13718:13740   */\n      swap1\n      pop\n        /* \"#utility.yul\":13749:13782   */\n      tag_317\n        /* \"#utility.yul\":13776:13781   */\n      dup2\n        /* \"#utility.yul\":13749:13782   */\n      tag_123\n      jump\t// in\n    tag_317:\n        /* \"#utility.yul\":13645:13788   */\n      swap3\n      swap2\n      pop\n      pop\n      jump\t// out\n        /* \"#utility.yul\":13794:14317   */\n    tag_68:\n        /* \"#utility.yul\":13881:13887   */\n      0x00\n        /* \"#utility.yul\":13889:13895   */\n      dup1\n        /* \"#utility.yul\":13938:13940   */\n      0x40\n        /* \"#utility.yul\":13926:13935   */\n      dup4\n        /* \"#utility.yul\":13917:13924   */\n      dup6\n        /* \"#utility.yul\":13913:13936   */\n      sub\n        /* \"#utility.yul\":13909:13941   */\n      slt\n        /* \"#utility.yul\":13906:14025   */\n      iszero\n      tag_319\n      jumpi\n        /* \"#utility.yul\":13944:14023   */\n      tag_320\n      tag_116\n      jump\t// in\n    tag_320:\n        /* \"#utility.yul\":13906:14025   */\n    tag_319:\n        /* \"#utility.yul\":14064:14065   */\n      0x00\n        /* \"#utility.yul\":14089:14161   */\n      tag_321\n        /* \"#utility.yul\":14153:14160   */\n      dup6\n        /* \"#utility.yul\":14144:14150   */\n      dup3\n        /* \"#utility.yul\":14133:14142   */\n      dup7\n        /* \"#utility.yul\":14129:14151   */\n      add\n        /* \"#utility.yul\":14089:14161   */\n      tag_165\n      jump\t// in\n    tag_321:\n        /* \"#utility.yul\":14079:14161   */\n      swap3\n      pop\n        /* \"#utility.yul\":14035:14171   */\n      pop\n        /* \"#utility.yul\":14210:14212   */\n      0x20\n        /* \"#utility.yul\":14236:14300   */\n      tag_322\n        /* \"#utility.yul\":14292:14299   */\n      dup6\n        /* \"#utility.yul\":14283:14289   */\n      dup3\n        /* \"#utility.yul\":14272:14281   */\n      dup7\n        /* \"#utility.yul\":14268:14290   */\n      add\n        /* \"#utility.yul\":14236:14300   */\n      tag_166\n      jump\t// in\n    tag_322:\n        /* \"#utility.yul\":14226:14300   */\n      swap2\n      pop\n        /* \"#utility.yul\":14181:14310   */\n      pop\n        /* \"#utility.yul\":13794:14317   */\n      swap3\n      pop\n      swap3\n      swap1\n      pop\n      jump\t// out\n        /* \"#utility.yul\":14323:14765   */\n    tag_75:\n        /* \"#utility.yul\":14472:14476   */\n      0x00\n        /* \"#utility.yul\":14510:14512   */\n      0x60\n        /* \"#utility.yul\":14499:14508   */\n      dup3\n        /* \"#utility.yul\":14495:14513   */\n      add\n        /* \"#utility.yul\":14487:14513   */\n      swap1\n      pop\n        /* \"#utility.yul\":14523:14594   */\n      tag_324\n        /* \"#utility.yul\":14591:14592   */\n      0x00\n        /* \"#utility.yul\":14580:14589   */\n      dup4\n        /* \"#utility.yul\":14576:14593   */\n      add\n        /* \"#utility.yul\":14567:14573   */\n      dup7\n        /* \"#utility.yul\":14523:14594   */\n      tag_141\n      jump\t// in\n    tag_324:\n        /* \"#utility.yul\":14604:14676   */\n      tag_325\n        /* \"#utility.yul\":14672:14674   */\n      0x20\n        /* \"#utility.yul\":14661:14670   */\n      dup4\n        /* \"#utility.yul\":14657:14675   */\n      add\n        /* \"#utility.yul\":14648:14654   */\n      dup6\n        /* \"#utility.yul\":14604:14676   */\n      tag_141\n      jump\t// in\n    tag_325:\n        /* \"#utility.yul\":14686:14758   */\n      tag_326\n        /* \"#utility.yul\":14754:14756   */\n      0x40\n        /* \"#utility.yul\":14743:14752   */\n      dup4\n        /* \"#utility.yul\":14739:14757   */\n      add\n        /* \"#utility.yul\":14730:14736   */\n      dup5\n        /* \"#utility.yul\":14686:14758   */\n      tag_150\n      jump\t// in\n    tag_326:\n        /* \"#utility.yul\":14323:14765   */\n      swap5\n      swap4\n      pop\n      pop\n      pop\n      pop\n      jump\t// out\n        /* \"#utility.yul\":14771:14908   */\n    tag_167:\n        /* \"#utility.yul\":14825:14830   */\n      0x00\n        /* \"#utility.yul\":14856:14862   */\n      dup2\n        /* \"#utility.yul\":14850:14863   */\n      mload\n        /* \"#utility.yul\":14841:14863   */\n      swap1\n      pop\n        /* \"#utility.yul\":14872:14902   */\n      tag_328\n        /* \"#utility.yul\":14896:14901   */\n      dup2\n        /* \"#utility.yul\":14872:14902   */\n      tag_126\n      jump\t// in\n    tag_328:\n        /* \"#utility.yul\":14771:14908   */\n      swap3\n      swap2\n      pop\n      pop\n      jump\t// out\n        /* \"#utility.yul\":14914:15259   */\n    tag_85:\n        /* \"#utility.yul\":14981:14987   */\n      0x00\n        /* \"#utility.yul\":15030:15032   */\n      0x20\n        /* \"#utility.yul\":15018:15027   */\n      dup3\n        /* \"#utility.yul\":15009:15016   */\n      dup5\n        /* \"#utility.yul\":15005:15028   */\n      sub\n        /* \"#utility.yul\":15001:15033   */\n      slt\n        /* \"#utility.yul\":14998:15117   */\n      iszero\n      tag_330\n      jumpi\n        /* \"#utility.yul\":15036:15115   */\n      tag_331\n      tag_116\n      jump\t// in\n    tag_331:\n        /* \"#utility.yul\":14998:15117   */\n    tag_330:\n        /* \"#utility.yul\":15156:15157   */\n      0x00\n        /* \"#utility.yul\":15181:15242   */\n      tag_332\n        /* \"#utility.yul\":15234:15241   */\n      dup5\n        /* \"#utility.yul\":15225:15231   */\n      dup3\n        /* \"#utility.yul\":15214:15223   */\n      dup6\n        /* \"#utility.yul\":15210:15232   */\n      add\n        /* \"#utility.yul\":15181:15242   */\n      tag_167\n      jump\t// in\n    tag_332:\n        /* \"#utility.yul\":15171:15242   */\n      swap2\n      pop\n        /* \"#utility.yul\":15127:15252   */\n      pop\n        /* \"#utility.yul\":14914:15259   */\n      swap3\n      swap2\n      pop\n      pop\n      jump\t// out\n        /* \"#utility.yul\":15265:15412   */\n    tag_168:\n        /* \"#utility.yul\":15366:15377   */\n      0x00\n        /* \"#utility.yul\":15403:15406   */\n      dup2\n        /* \"#utility.yul\":15388:15406   */\n      swap1\n      pop\n        /* \"#utility.yul\":15265:15412   */\n      swap3\n      swap2\n      pop\n      pop\n      jump\t// out\n        /* \"#utility.yul\":15418:15804   */\n    tag_169:\n        /* \"#utility.yul\":15522:15525   */\n      0x00\n        /* \"#utility.yul\":15550:15588   */\n      tag_335\n        /* \"#utility.yul\":15582:15587   */\n      dup3\n        /* \"#utility.yul\":15550:15588   */\n      tag_159\n      jump\t// in\n    tag_335:\n        /* \"#utility.yul\":15604:15692   */\n      tag_336\n        /* \"#utility.yul\":15685:15691   */\n      dup2\n        /* \"#utility.yul\":15680:15683   */\n      dup6\n        /* \"#utility.yul\":15604:15692   */\n      tag_168\n      jump\t// in\n    tag_336:\n        /* \"#utility.yul\":15597:15692   */\n      swap4\n      pop\n        /* \"#utility.yul\":15701:15766   */\n      tag_337\n        /* \"#utility.yul\":15759:15765   */\n      dup2\n        /* \"#utility.yul\":15754:15757   */\n      dup6\n        /* \"#utility.yul\":15747:15751   */\n      0x20\n        /* \"#utility.yul\":15740:15745   */\n      dup7\n        /* \"#utility.yul\":15736:15752   */\n      add\n        /* \"#utility.yul\":15701:15766   */\n      tag_161\n      jump\t// in\n    tag_337:\n        /* \"#utility.yul\":15791:15797   */\n      dup1\n        /* \"#utility.yul\":15786:15789   */\n      dup5\n        /* \"#utility.yul\":15782:15798   */\n      add\n        /* \"#utility.yul\":15775:15798   */\n      swap2\n      pop\n        /* \"#utility.yul\":15526:15804   */\n      pop\n        /* \"#utility.yul\":15418:15804   */\n      swap3\n      swap2\n      pop\n      pop\n      jump\t// out\n        /* \"#utility.yul\":15810:16081   */\n    tag_98:\n        /* \"#utility.yul\":15940:15943   */\n      0x00\n        /* \"#utility.yul\":15962:16055   */\n      tag_339\n        /* \"#utility.yul\":16051:16054   */\n      dup3\n        /* \"#utility.yul\":16042:16048   */\n      dup5\n        /* \"#utility.yul\":15962:16055   */\n      tag_169\n      jump\t// in\n    tag_339:\n        /* \"#utility.yul\":15955:16055   */\n      swap2\n      pop\n        /* \"#utility.yul\":16072:16075   */\n      dup2\n        /* \"#utility.yul\":16065:16075   */\n      swap1\n      pop\n        /* \"#utility.yul\":15810:16081   */\n      swap3\n      swap2\n      pop\n      pop\n      jump\t// out\n\n    auxdata: 0xa26469706673582212200dd7b2c3c48850b84d4090f71d5119fb5937e923d489356e3edd5be4faeb924864736f6c63430008140033\n}\n",
				"bytecode": {
					"linkReferences": {},
					"object": "61010060405234801562000011575f80fd5b506040516200144338038062001443833981810160405281019062000037919062000224565b8383838282828273ffffffffffffffffffffffffffffffffffffffff1660808173ffffffffffffffffffffffffffffffffffffffff16815250508173ffffffffffffffffffffffffffffffffffffffff1660a08173ffffffffffffffffffffffffffffffffffffffff16815250508063ffffffff1660c08163ffffffff16815250505050505050508073ffffffffffffffffffffffffffffffffffffffff1660e08173ffffffffffffffffffffffffffffffffffffffff16815250505050505062000293565b5f80fd5b5f73ffffffffffffffffffffffffffffffffffffffff82169050919050565b5f6200012c8262000101565b9050919050565b5f6200013f8262000120565b9050919050565b620001518162000133565b81146200015c575f80fd5b50565b5f815190506200016f8162000146565b92915050565b620001808162000120565b81146200018b575f80fd5b50565b5f815190506200019e8162000175565b92915050565b5f63ffffffff82169050919050565b620001be81620001a4565b8114620001c9575f80fd5b50565b5f81519050620001dc81620001b3565b92915050565b5f620001ee8262000120565b9050919050565b6200020081620001e2565b81146200020b575f80fd5b50565b5f815190506200021e81620001f5565b92915050565b5f805f80608085870312156200023f576200023e620000fd565b5b5f6200024e878288016200015f565b945050602062000261878288016200018e565b93505060406200027487828801620001cc565b925050606062000287878288016200020e565b91505092959194509250565b60805160a05160c05160e051611144620002ff5f395f81816103c1015281816103eb01526105ee01525f81816102e00152818161039d015261047101525f818161026201528181610355015261049201525f81816101bd01528181610379015261043501526111445ff3fe608060405260043610610054575f3560e01c806303bdcfc9146100585780631806b5f21461008057806340cf5e811461009c5780635d43792c146100c6578063b0138132146100f0578063fc0c546a1461011a575b5f80fd5b348015610063575f80fd5b5061007e600480360381019061007991906109cc565b610144565b005b61009a60048036038101906100959190610b91565b6101bb565b005b3480156100a7575f80fd5b506100b0610353565b6040516100bd9190610c0c565b60405180910390f35b3480156100d1575f80fd5b506100da610377565b6040516100e79190610c80565b60405180910390f35b3480156100fb575f80fd5b5061010461039b565b6040516101119190610ca8565b60405180910390f35b348015610125575f80fd5b5061012e6103bf565b60405161013b9190610ce1565b60405180910390f35b61014d826103e3565b5f8383604051602001610161929190610d09565b604051602081830303815290604052905061017c8183610433565b7f84de4c8d75302469871d77e99e829ab3f981ef6b4f2ab221b8fe7816cec54e3584846040516101ad929190610d09565b60405180910390a150505050565b7f000000000000000000000000000000000000000000000000000000000000000073ffffffffffffffffffffffffffffffffffffffff163373ffffffffffffffffffffffffffffffffffffffff1614610249576040517f08c379a000000000000000000000000000000000000000000000000000000000815260040161024090610db0565b60405180910390fd5b8273ffffffffffffffffffffffffffffffffffffffff167f000000000000000000000000000000000000000000000000000000000000000073ffffffffffffffffffffffffffffffffffffffff16146102d7576040517f08c379a00000000000000000000000000000000000000000000000000000000081526004016102ce90610e3e565b60405180910390fd5b8163ffffffff167f000000000000000000000000000000000000000000000000000000000000000063ffffffff1614610345576040517f08c379a000000000000000000000000000000000000000000000000000000000815260040161033c90610ecc565b60405180910390fd5b61034e81610503565b505050565b7f000000000000000000000000000000000000000000000000000000000000000081565b7f000000000000000000000000000000000000000000000000000000000000000081565b7f000000000000000000000000000000000000000000000000000000000000000081565b7f000000000000000000000000000000000000000000000000000000000000000081565b6104303330837f000000000000000000000000000000000000000000000000000000000000000073ffffffffffffffffffffffffffffffffffffffff16610565909392919063ffffffff16565b50565b7f000000000000000000000000000000000000000000000000000000000000000073ffffffffffffffffffffffffffffffffffffffff1663240ff3787f00000000000000000000000000000000000000000000000000000000000000007f000000000000000000000000000000000000000000000000000000000000000084866040518563ffffffff1660e01b81526004016104d29493929190610f73565b5f604051808303815f87803b1580156104e9575f80fd5b505af11580156104fb573d5f803e3d5ffd5b505050505050565b5f8082806020019051810190610519919061100c565b9150915061052782826105e7565b7f4d7f917f6b905f28ba5297e6c224a6cfec20ac6a3698a55b412d30b95ad25d2f8282604051610558929190610d09565b60405180910390a1505050565b6105e1848573ffffffffffffffffffffffffffffffffffffffff166323b872dd86868660405160240161059a9392919061104a565b604051602081830303815290604052915060e01b6020820180517bffffffffffffffffffffffffffffffffffffffffffffffffffffffff8381831617835250505050610636565b50505050565b61063282827f000000000000000000000000000000000000000000000000000000000000000073ffffffffffffffffffffffffffffffffffffffff166106cb9092919063ffffffff16565b5050565b5f610660828473ffffffffffffffffffffffffffffffffffffffff1661074a90919063ffffffff16565b90505f8151141580156106845750808060200190518101906106829190611093565b155b156106c657826040517f5274afe70000000000000000000000000000000000000000000000000000000081526004016106bd9190610c0c565b60405180910390fd5b505050565b610745838473ffffffffffffffffffffffffffffffffffffffff1663a9059cbb85856040516024016106fe929190610d09565b604051602081830303815290604052915060e01b6020820180517bffffffffffffffffffffffffffffffffffffffffffffffffffffffff8381831617835250505050610636565b505050565b606061075783835f61075f565b905092915050565b6060814710156107a657306040517fcd78605900000000000000000000000000000000000000000000000000000000815260040161079d9190610c0c565b60405180910390fd5b5f808573ffffffffffffffffffffffffffffffffffffffff1684866040516107ce91906110f8565b5f6040518083038185875af1925050503d805f8114610808576040519150601f19603f3d011682016040523d82523d5f602084013e61080d565b606091505b509150915061081d868383610828565b925050509392505050565b60608261083d57610838826108b5565b6108ad565b5f825114801561086357505f8473ffffffffffffffffffffffffffffffffffffffff163b145b156108a557836040517f9996b31500000000000000000000000000000000000000000000000000000000815260040161089c9190610c0c565b60405180910390fd5b8190506108ae565b5b9392505050565b5f815111156108c75780518082602001fd5b6040517f1425ea4200000000000000000000000000000000000000000000000000000000815260040160405180910390fd5b5f604051905090565b5f80fd5b5f80fd5b5f73ffffffffffffffffffffffffffffffffffffffff82169050919050565b5f6109338261090a565b9050919050565b61094381610929565b811461094d575f80fd5b50565b5f8135905061095e8161093a565b92915050565b5f819050919050565b61097681610964565b8114610980575f80fd5b50565b5f813590506109918161096d565b92915050565b5f8115159050919050565b6109ab81610997565b81146109b5575f80fd5b50565b5f813590506109c6816109a2565b92915050565b5f805f606084860312156109e3576109e2610902565b5b5f6109f086828701610950565b9350506020610a0186828701610983565b9250506040610a12868287016109b8565b9150509250925092565b5f63ffffffff82169050919050565b610a3481610a1c565b8114610a3e575f80fd5b50565b5f81359050610a4f81610a2b565b92915050565b5f80fd5b5f80fd5b5f601f19601f8301169050919050565b7f4e487b71000000000000000000000000000000000000000000000000000000005f52604160045260245ffd5b610aa382610a5d565b810181811067ffffffffffffffff82111715610ac257610ac1610a6d565b5b80604052505050565b5f610ad46108f9565b9050610ae08282610a9a565b919050565b5f67ffffffffffffffff821115610aff57610afe610a6d565b5b610b0882610a5d565b9050602081019050919050565b828183375f83830152505050565b5f610b35610b3084610ae5565b610acb565b905082815260208101848484011115610b5157610b50610a59565b5b610b5c848285610b15565b509392505050565b5f82601f830112610b7857610b77610a55565b5b8135610b88848260208601610b23565b91505092915050565b5f805f60608486031215610ba857610ba7610902565b5b5f610bb586828701610950565b9350506020610bc686828701610a41565b925050604084013567ffffffffffffffff811115610be757610be6610906565b5b610bf386828701610b64565b9150509250925092565b610c0681610929565b82525050565b5f602082019050610c1f5f830184610bfd565b92915050565b5f819050919050565b5f610c48610c43610c3e8461090a565b610c25565b61090a565b9050919050565b5f610c5982610c2e565b9050919050565b5f610c6a82610c4f565b9050919050565b610c7a81610c60565b82525050565b5f602082019050610c935f830184610c71565b92915050565b610ca281610a1c565b82525050565b5f602082019050610cbb5f830184610c99565b92915050565b5f610ccb82610c4f565b9050919050565b610cdb81610cc1565b82525050565b5f602082019050610cf45f830184610cd2565b92915050565b610d0381610964565b82525050565b5f604082019050610d1c5f830185610bfd565b610d296020830184610cfa565b9392505050565b5f82825260208201905092915050565b7f546f6b656e577261707065643a3a506f6c79676f6e427269646765426173653a5f8201527f204e6f7420506f6c79676f6e5a6b45564d427269646765000000000000000000602082015250565b5f610d9a603783610d30565b9150610da582610d40565b604082019050919050565b5f6020820190508181035f830152610dc781610d8e565b9050919050565b7f546f6b656e577261707065643a3a506f6c79676f6e427269646765426173653a5f8201527f204e6f7420636f756e7465727061727420636f6e747261637400000000000000602082015250565b5f610e28603983610d30565b9150610e3382610dce565b604082019050919050565b5f6020820190508181035f830152610e5581610e1c565b9050919050565b7f546f6b656e577261707065643a3a506f6c79676f6e427269646765426173653a5f8201527f204e6f7420636f756e74657270617274206e6574776f726b0000000000000000602082015250565b5f610eb6603883610d30565b9150610ec182610e5c565b604082019050919050565b5f6020820190508181035f830152610ee381610eaa565b9050919050565b610ef381610997565b82525050565b5f81519050919050565b5f82825260208201905092915050565b5f5b83811015610f30578082015181840152602081019050610f15565b5f8484015250505050565b5f610f4582610ef9565b610f4f8185610f03565b9350610f5f818560208601610f13565b610f6881610a5d565b840191505092915050565b5f608082019050610f865f830187610c99565b610f936020830186610bfd565b610fa06040830185610eea565b8181036060830152610fb28184610f3b565b905095945050505050565b5f610fc78261090a565b9050919050565b610fd781610fbd565b8114610fe1575f80fd5b50565b5f81519050610ff281610fce565b92915050565b5f815190506110068161096d565b92915050565b5f806040838503121561102257611021610902565b5b5f61102f85828601610fe4565b925050602061104085828601610ff8565b9150509250929050565b5f60608201905061105d5f830186610bfd565b61106a6020830185610bfd565b6110776040830184610cfa565b949350505050565b5f8151905061108d816109a2565b92915050565b5f602082840312156110a8576110a7610902565b5b5f6110b58482850161107f565b91505092915050565b5f81905092915050565b5f6110d282610ef9565b6110dc81856110be565b93506110ec818560208601610f13565b80840191505092915050565b5f61110382846110c8565b91508190509291505056fea26469706673582212200dd7b2c3c48850b84d4090f71d5119fb5937e923d489356e3edd5be4faeb924864736f6c63430008140033",
					"opcodes": "PUSH2 0x100 PUSH1 0x40 MSTORE CALLVALUE DUP1 ISZERO PUSH3 0x11 JUMPI PUSH0 DUP1 REVERT JUMPDEST POP PUSH1 0x40 MLOAD PUSH3 0x1443 CODESIZE SUB DUP1 PUSH3 0x1443 DUP4 CODECOPY DUP2 DUP2 ADD PUSH1 0x40 MSTORE DUP2 ADD SWAP1 PUSH3 0x37 SWAP2 SWAP1 PUSH3 0x224 JUMP JUMPDEST DUP4 DUP4 DUP4 DUP3 DUP3 DUP3 DUP3 PUSH20 0xFFFFFFFFFFFFFFFFFFFFFFFFFFFFFFFFFFFFFFFF AND PUSH1 0x80 DUP2 PUSH20 0xFFFFFFFFFFFFFFFFFFFFFFFFFFFFFFFFFFFFFFFF AND DUP2 MSTORE POP POP DUP2 PUSH20 0xFFFFFFFFFFFFFFFFFFFFFFFFFFFFFFFFFFFFFFFF AND PUSH1 0xA0 DUP2 PUSH20 0xFFFFFFFFFFFFFFFFFFFFFFFFFFFFFFFFFFFFFFFF AND DUP2 MSTORE POP POP DUP1 PUSH4 0xFFFFFFFF AND PUSH1 0xC0 DUP2 PUSH4 0xFFFFFFFF AND DUP2 MSTORE POP POP POP POP POP POP POP POP DUP1 PUSH20 0xFFFFFFFFFFFFFFFFFFFFFFFFFFFFFFFFFFFFFFFF AND PUSH1 0xE0 DUP2 PUSH20 0xFFFFFFFFFFFFFFFFFFFFFFFFFFFFFFFFFFFFFFFF AND DUP2 MSTORE POP POP POP POP POP POP PUSH3 0x293 JUMP JUMPDEST PUSH0 DUP1 REVERT JUMPDEST PUSH0 PUSH20 0xFFFFFFFFFFFFFFFFFFFFFFFFFFFFFFFFFFFFFFFF DUP3 AND SWAP1 POP SWAP2 SWAP1 POP JUMP JUMPDEST PUSH0 PUSH3 0x12C DUP3 PUSH3 0x101 JUMP JUMPDEST SWAP1 POP SWAP2 SWAP1 POP JUMP JUMPDEST PUSH0 PUSH3 0x13F DUP3 PUSH3 0x120 JUMP JUMPDEST SWAP1 POP SWAP2 SWAP1 POP JUMP JUMPDEST PUSH3 0x151 DUP2 PUSH3 0x133 JUMP JUMPDEST DUP2 EQ PUSH3 0x15C JUMPI PUSH0 DUP1 REVERT JUMPDEST POP JUMP JUMPDEST PUSH0 DUP2 MLOAD SWAP1 POP PUSH3 0x16F DUP2 PUSH3 0x146 JUMP JUMPDEST SWAP3 SWAP2 POP POP JUMP JUMPDEST PUSH3 0x180 DUP2 PUSH3 0x120 JUMP JUMPDEST DUP2 EQ PUSH3 0x18B JUMPI PUSH0 DUP1 REVERT JUMPDEST POP JUMP JUMPDEST PUSH0 DUP2 MLOAD SWAP1 POP PUSH3 0x19E DUP2 PUSH3 0x175 JUMP JUMPDEST SWAP3 SWAP2 POP POP JUMP JUMPDEST PUSH0 PUSH4 0xFFFFFFFF DUP3 AND SWAP1 POP SWAP2 SWAP1 POP JUMP JUMPDEST PUSH3 0x1BE DUP2 PUSH3 0x1A4 JUMP JUMPDEST DUP2 EQ PUSH3 0x1C9 JUMPI PUSH0 DUP1 REVERT JUMPDEST POP JUMP JUMPDEST PUSH0 DUP2 MLOAD SWAP1 POP PUSH3 0x1DC DUP2 PUSH3 0x1B3 JUMP JUMPDEST SWAP3 SWAP2 POP POP JUMP JUMPDEST PUSH0 PUSH3 0x1EE DUP3 PUSH3 0x120 JUMP JUMPDEST SWAP1 POP SWAP2 SWAP1 POP JUMP JUMPDEST PUSH3 0x200 DUP2 PUSH3 0x1E2 JUMP JUMPDEST DUP2 EQ PUSH3 0x20B JUMPI PUSH0 DUP1 REVERT JUMPDEST POP JUMP JUMPDEST PUSH0 DUP2 MLOAD SWAP1 POP PUSH3 0x21E DUP2 PUSH3 0x1F5 JUMP JUMPDEST SWAP3 SWAP2 POP POP JUMP JUMPDEST PUSH0 DUP1 PUSH0 DUP1 PUSH1 0x80 DUP6 DUP8 SUB SLT ISZERO PUSH3 0x23F JUMPI PUSH3 0x23E PUSH3 0xFD JUMP JUMPDEST JUMPDEST PUSH0 PUSH3 0x24E DUP8 DUP3 DUP9 ADD PUSH3 0x15F JUMP JUMPDEST SWAP5 POP POP PUSH1 0x20 PUSH3 0x261 DUP8 DUP3 DUP9 ADD PUSH3 0x18E JUMP JUMPDEST SWAP4 POP POP PUSH1 0x40 PUSH3 0x274 DUP8 DUP3 DUP9 ADD PUSH3 0x1CC JUMP JUMPDEST SWAP3 POP POP PUSH1 0x60 PUSH3 0x287 DUP8 DUP3 DUP9 ADD PUSH3 0x20E JUMP JUMPDEST SWAP2 POP POP SWAP3 SWAP6 SWAP2 SWAP5 POP SWAP3 POP JUMP JUMPDEST PUSH1 0x80 MLOAD PUSH1 0xA0 MLOAD PUSH1 0xC0 MLOAD PUSH1 0xE0 MLOAD PUSH2 0x1144 PUSH3 0x2FF PUSH0 CODECOPY PUSH0 DUP2 DUP2 PUSH2 0x3C1 ADD MSTORE DUP2 DUP2 PUSH2 0x3EB ADD MSTORE PUSH2 0x5EE ADD MSTORE PUSH0 DUP2 DUP2 PUSH2 0x2E0 ADD MSTORE DUP2 DUP2 PUSH2 0x39D ADD MSTORE PUSH2 0x471 ADD MSTORE PUSH0 DUP2 DUP2 PUSH2 0x262 ADD MSTORE DUP2 DUP2 PUSH2 0x355 ADD MSTORE PUSH2 0x492 ADD MSTORE PUSH0 DUP2 DUP2 PUSH2 0x1BD ADD MSTORE DUP2 DUP2 PUSH2 0x379 ADD MSTORE PUSH2 0x435 ADD MSTORE PUSH2 0x1144 PUSH0 RETURN INVALID PUSH1 0x80 PUSH1 0x40 MSTORE PUSH1 0x4 CALLDATASIZE LT PUSH2 0x54 JUMPI PUSH0 CALLDATALOAD PUSH1 0xE0 SHR DUP1 PUSH4 0x3BDCFC9 EQ PUSH2 0x58 JUMPI DUP1 PUSH4 0x1806B5F2 EQ PUSH2 0x80 JUMPI DUP1 PUSH4 0x40CF5E81 EQ PUSH2 0x9C JUMPI DUP1 PUSH4 0x5D43792C EQ PUSH2 0xC6 JUMPI DUP1 PUSH4 0xB0138132 EQ PUSH2 0xF0 JUMPI DUP1 PUSH4 0xFC0C546A EQ PUSH2 0x11A JUMPI JUMPDEST PUSH0 DUP1 REVERT JUMPDEST CALLVALUE DUP1 ISZERO PUSH2 0x63 JUMPI PUSH0 DUP1 REVERT JUMPDEST POP PUSH2 0x7E PUSH1 0x4 DUP1 CALLDATASIZE SUB DUP2 ADD SWAP1 PUSH2 0x79 SWAP2 SWAP1 PUSH2 0x9CC JUMP JUMPDEST PUSH2 0x144 JUMP JUMPDEST STOP JUMPDEST PUSH2 0x9A PUSH1 0x4 DUP1 CALLDATASIZE SUB DUP2 ADD SWAP1 PUSH2 0x95 SWAP2 SWAP1 PUSH2 0xB91 JUMP JUMPDEST PUSH2 0x1BB JUMP JUMPDEST STOP JUMPDEST CALLVALUE DUP1 ISZERO PUSH2 0xA7 JUMPI PUSH0 DUP1 REVERT JUMPDEST POP PUSH2 0xB0 PUSH2 0x353 JUMP JUMPDEST PUSH1 0x40 MLOAD PUSH2 0xBD SWAP2 SWAP1 PUSH2 0xC0C JUMP JUMPDEST PUSH1 0x40 MLOAD DUP1 SWAP2 SUB SWAP1 RETURN JUMPDEST CALLVALUE DUP1 ISZERO PUSH2 0xD1 JUMPI PUSH0 DUP1 REVERT JUMPDEST POP PUSH2 0xDA PUSH2 0x377 JUMP JUMPDEST PUSH1 0x40 MLOAD PUSH2 0xE7 SWAP2 SWAP1 PUSH2 0xC80 JUMP JUMPDEST PUSH1 0x40 MLOAD DUP1 SWAP2 SUB SWAP1 RETURN JUMPDEST CALLVALUE DUP1 ISZERO PUSH2 0xFB JUMPI PUSH0 DUP1 REVERT JUMPDEST POP PUSH2 0x104 PUSH2 0x39B JUMP JUMPDEST PUSH1 0x40 MLOAD PUSH2 0x111 SWAP2 SWAP1 PUSH2 0xCA8 JUMP JUMPDEST PUSH1 0x40 MLOAD DUP1 SWAP2 SUB SWAP1 RETURN JUMPDEST CALLVALUE DUP1 ISZERO PUSH2 0x125 JUMPI PUSH0 DUP1 REVERT JUMPDEST POP PUSH2 0x12E PUSH2 0x3BF JUMP JUMPDEST PUSH1 0x40 MLOAD PUSH2 0x13B SWAP2 SWAP1 PUSH2 0xCE1 JUMP JUMPDEST PUSH1 0x40 MLOAD DUP1 SWAP2 SUB SWAP1 RETURN JUMPDEST PUSH2 0x14D DUP3 PUSH2 0x3E3 JUMP JUMPDEST PUSH0 DUP4 DUP4 PUSH1 0x40 MLOAD PUSH1 0x20 ADD PUSH2 0x161 SWAP3 SWAP2 SWAP1 PUSH2 0xD09 JUMP JUMPDEST PUSH1 0x40 MLOAD PUSH1 0x20 DUP2 DUP4 SUB SUB DUP2 MSTORE SWAP1 PUSH1 0x40 MSTORE SWAP1 POP PUSH2 0x17C DUP2 DUP4 PUSH2 0x433 JUMP JUMPDEST PUSH32 0x84DE4C8D75302469871D77E99E829AB3F981EF6B4F2AB221B8FE7816CEC54E35 DUP5 DUP5 PUSH1 0x40 MLOAD PUSH2 0x1AD SWAP3 SWAP2 SWAP1 PUSH2 0xD09 JUMP JUMPDEST PUSH1 0x40 MLOAD DUP1 SWAP2 SUB SWAP1 LOG1 POP POP POP POP JUMP JUMPDEST PUSH32 0x0 PUSH20 0xFFFFFFFFFFFFFFFFFFFFFFFFFFFFFFFFFFFFFFFF AND CALLER PUSH20 0xFFFFFFFFFFFFFFFFFFFFFFFFFFFFFFFFFFFFFFFF AND EQ PUSH2 0x249 JUMPI PUSH1 0x40 MLOAD PUSH32 0x8C379A000000000000000000000000000000000000000000000000000000000 DUP2 MSTORE PUSH1 0x4 ADD PUSH2 0x240 SWAP1 PUSH2 0xDB0 JUMP JUMPDEST PUSH1 0x40 MLOAD DUP1 SWAP2 SUB SWAP1 REVERT JUMPDEST DUP3 PUSH20 0xFFFFFFFFFFFFFFFFFFFFFFFFFFFFFFFFFFFFFFFF AND PUSH32 0x0 PUSH20 0xFFFFFFFFFFFFFFFFFFFFFFFFFFFFFFFFFFFFFFFF AND EQ PUSH2 0x2D7 JUMPI PUSH1 0x40 MLOAD PUSH32 0x8C379A000000000000000000000000000000000000000000000000000000000 DUP2 MSTORE PUSH1 0x4 ADD PUSH2 0x2CE SWAP1 PUSH2 0xE3E JUMP JUMPDEST PUSH1 0x40 MLOAD DUP1 SWAP2 SUB SWAP1 REVERT JUMPDEST DUP2 PUSH4 0xFFFFFFFF AND PUSH32 0x0 PUSH4 0xFFFFFFFF AND EQ PUSH2 0x345 JUMPI PUSH1 0x40 MLOAD PUSH32 0x8C379A000000000000000000000000000000000000000000000000000000000 DUP2 MSTORE PUSH1 0x4 ADD PUSH2 0x33C SWAP1 PUSH2 0xECC JUMP JUMPDEST PUSH1 0x40 MLOAD DUP1 SWAP2 SUB SWAP1 REVERT JUMPDEST PUSH2 0x34E DUP2 PUSH2 0x503 JUMP JUMPDEST POP POP POP JUMP JUMPDEST PUSH32 0x0 DUP2 JUMP JUMPDEST PUSH32 0x0 DUP2 JUMP JUMPDEST PUSH32 0x0 DUP2 JUMP JUMPDEST PUSH32 0x0 DUP2 JUMP JUMPDEST PUSH2 0x430 CALLER ADDRESS DUP4 PUSH32 0x0 PUSH20 0xFFFFFFFFFFFFFFFFFFFFFFFFFFFFFFFFFFFFFFFF AND PUSH2 0x565 SWAP1 SWAP4 SWAP3 SWAP2 SWAP1 PUSH4 0xFFFFFFFF AND JUMP JUMPDEST POP JUMP JUMPDEST PUSH32 0x0 PUSH20 0xFFFFFFFFFFFFFFFFFFFFFFFFFFFFFFFFFFFFFFFF AND PUSH4 0x240FF378 PUSH32 0x0 PUSH32 0x0 DUP5 DUP7 PUSH1 0x40 MLOAD DUP6 PUSH4 0xFFFFFFFF AND PUSH1 0xE0 SHL DUP2 MSTORE PUSH1 0x4 ADD PUSH2 0x4D2 SWAP5 SWAP4 SWAP3 SWAP2 SWAP1 PUSH2 0xF73 JUMP JUMPDEST PUSH0 PUSH1 0x40 MLOAD DUP1 DUP4 SUB DUP2 PUSH0 DUP8 DUP1 EXTCODESIZE ISZERO DUP1 ISZERO PUSH2 0x4E9 JUMPI PUSH0 DUP1 REVERT JUMPDEST POP GAS CALL ISZERO DUP1 ISZERO PUSH2 0x4FB JUMPI RETURNDATASIZE PUSH0 DUP1 RETURNDATACOPY RETURNDATASIZE PUSH0 REVERT JUMPDEST POP POP POP POP POP POP JUMP JUMPDEST PUSH0 DUP1 DUP3 DUP1 PUSH1 0x20 ADD SWAP1 MLOAD DUP2 ADD SWAP1 PUSH2 0x519 SWAP2 SWAP1 PUSH2 0x100C JUMP JUMPDEST SWAP2 POP SWAP2 POP PUSH2 0x527 DUP3 DUP3 PUSH2 0x5E7 JUMP JUMPDEST PUSH32 0x4D7F917F6B905F28BA5297E6C224A6CFEC20AC6A3698A55B412D30B95AD25D2F DUP3 DUP3 PUSH1 0x40 MLOAD PUSH2 0x558 SWAP3 SWAP2 SWAP1 PUSH2 0xD09 JUMP JUMPDEST PUSH1 0x40 MLOAD DUP1 SWAP2 SUB SWAP1 LOG1 POP POP POP JUMP JUMPDEST PUSH2 0x5E1 DUP5 DUP6 PUSH20 0xFFFFFFFFFFFFFFFFFFFFFFFFFFFFFFFFFFFFFFFF AND PUSH4 0x23B872DD DUP7 DUP7 DUP7 PUSH1 0x40 MLOAD PUSH1 0x24 ADD PUSH2 0x59A SWAP4 SWAP3 SWAP2 SWAP1 PUSH2 0x104A JUMP JUMPDEST PUSH1 0x40 MLOAD PUSH1 0x20 DUP2 DUP4 SUB SUB DUP2 MSTORE SWAP1 PUSH1 0x40 MSTORE SWAP2 POP PUSH1 0xE0 SHL PUSH1 0x20 DUP3 ADD DUP1 MLOAD PUSH28 0xFFFFFFFFFFFFFFFFFFFFFFFFFFFFFFFFFFFFFFFFFFFFFFFFFFFFFFFF DUP4 DUP2 DUP4 AND OR DUP4 MSTORE POP POP POP POP PUSH2 0x636 JUMP JUMPDEST POP POP POP POP JUMP JUMPDEST PUSH2 0x632 DUP3 DUP3 PUSH32 0x0 PUSH20 0xFFFFFFFFFFFFFFFFFFFFFFFFFFFFFFFFFFFFFFFF AND PUSH2 0x6CB SWAP1 SWAP3 SWAP2 SWAP1 PUSH4 0xFFFFFFFF AND JUMP JUMPDEST POP POP JUMP JUMPDEST PUSH0 PUSH2 0x660 DUP3 DUP5 PUSH20 0xFFFFFFFFFFFFFFFFFFFFFFFFFFFFFFFFFFFFFFFF AND PUSH2 0x74A SWAP1 SWAP2 SWAP1 PUSH4 0xFFFFFFFF AND JUMP JUMPDEST SWAP1 POP PUSH0 DUP2 MLOAD EQ ISZERO DUP1 ISZERO PUSH2 0x684 JUMPI POP DUP1 DUP1 PUSH1 0x20 ADD SWAP1 MLOAD DUP2 ADD SWAP1 PUSH2 0x682 SWAP2 SWAP1 PUSH2 0x1093 JUMP JUMPDEST ISZERO JUMPDEST ISZERO PUSH2 0x6C6 JUMPI DUP3 PUSH1 0x40 MLOAD PUSH32 0x5274AFE700000000000000000000000000000000000000000000000000000000 DUP2 MSTORE PUSH1 0x4 ADD PUSH2 0x6BD SWAP2 SWAP1 PUSH2 0xC0C JUMP JUMPDEST PUSH1 0x40 MLOAD DUP1 SWAP2 SUB SWAP1 REVERT JUMPDEST POP POP POP JUMP JUMPDEST PUSH2 0x745 DUP4 DUP5 PUSH20 0xFFFFFFFFFFFFFFFFFFFFFFFFFFFFFFFFFFFFFFFF AND PUSH4 0xA9059CBB DUP6 DUP6 PUSH1 0x40 MLOAD PUSH1 0x24 ADD PUSH2 0x6FE SWAP3 SWAP2 SWAP1 PUSH2 0xD09 JUMP JUMPDEST PUSH1 0x40 MLOAD PUSH1 0x20 DUP2 DUP4 SUB SUB DUP2 MSTORE SWAP1 PUSH1 0x40 MSTORE SWAP2 POP PUSH1 0xE0 SHL PUSH1 0x20 DUP3 ADD DUP1 MLOAD PUSH28 0xFFFFFFFFFFFFFFFFFFFFFFFFFFFFFFFFFFFFFFFFFFFFFFFFFFFFFFFF DUP4 DUP2 DUP4 AND OR DUP4 MSTORE POP POP POP POP PUSH2 0x636 JUMP JUMPDEST POP POP POP JUMP JUMPDEST PUSH1 0x60 PUSH2 0x757 DUP4 DUP4 PUSH0 PUSH2 0x75F JUMP JUMPDEST SWAP1 POP SWAP3 SWAP2 POP POP JUMP JUMPDEST PUSH1 0x60 DUP2 SELFBALANCE LT ISZERO PUSH2 0x7A6 JUMPI ADDRESS PUSH1 0x40 MLOAD PUSH32 0xCD78605900000000000000000000000000000000000000000000000000000000 DUP2 MSTORE PUSH1 0x4 ADD PUSH2 0x79D SWAP2 SWAP1 PUSH2 0xC0C JUMP JUMPDEST PUSH1 0x40 MLOAD DUP1 SWAP2 SUB SWAP1 REVERT JUMPDEST PUSH0 DUP1 DUP6 PUSH20 0xFFFFFFFFFFFFFFFFFFFFFFFFFFFFFFFFFFFFFFFF AND DUP5 DUP7 PUSH1 0x40 MLOAD PUSH2 0x7CE SWAP2 SWAP1 PUSH2 0x10F8 JUMP JUMPDEST PUSH0 PUSH1 0x40 MLOAD DUP1 DUP4 SUB DUP2 DUP6 DUP8 GAS CALL SWAP3 POP POP POP RETURNDATASIZE DUP1 PUSH0 DUP2 EQ PUSH2 0x808 JUMPI PUSH1 0x40 MLOAD SWAP2 POP PUSH1 0x1F NOT PUSH1 0x3F RETURNDATASIZE ADD AND DUP3 ADD PUSH1 0x40 MSTORE RETURNDATASIZE DUP3 MSTORE RETURNDATASIZE PUSH0 PUSH1 0x20 DUP5 ADD RETURNDATACOPY PUSH2 0x80D JUMP JUMPDEST PUSH1 0x60 SWAP2 POP JUMPDEST POP SWAP2 POP SWAP2 POP PUSH2 0x81D DUP7 DUP4 DUP4 PUSH2 0x828 JUMP JUMPDEST SWAP3 POP POP POP SWAP4 SWAP3 POP POP POP JUMP JUMPDEST PUSH1 0x60 DUP3 PUSH2 0x83D JUMPI PUSH2 0x838 DUP3 PUSH2 0x8B5 JUMP JUMPDEST PUSH2 0x8AD JUMP JUMPDEST PUSH0 DUP3 MLOAD EQ DUP1 ISZERO PUSH2 0x863 JUMPI POP PUSH0 DUP5 PUSH20 0xFFFFFFFFFFFFFFFFFFFFFFFFFFFFFFFFFFFFFFFF AND EXTCODESIZE EQ JUMPDEST ISZERO PUSH2 0x8A5 JUMPI DUP4 PUSH1 0x40 MLOAD PUSH32 0x9996B31500000000000000000000000000000000000000000000000000000000 DUP2 MSTORE PUSH1 0x4 ADD PUSH2 0x89C SWAP2 SWAP1 PUSH2 0xC0C JUMP JUMPDEST PUSH1 0x40 MLOAD DUP1 SWAP2 SUB SWAP1 REVERT JUMPDEST DUP2 SWAP1 POP PUSH2 0x8AE JUMP JUMPDEST JUMPDEST SWAP4 SWAP3 POP POP POP JUMP JUMPDEST PUSH0 DUP2 MLOAD GT ISZERO PUSH2 0x8C7 JUMPI DUP1 MLOAD DUP1 DUP3 PUSH1 0x20 ADD REVERT JUMPDEST PUSH1 0x40 MLOAD PUSH32 0x1425EA4200000000000000000000000000000000000000000000000000000000 DUP2 MSTORE PUSH1 0x4 ADD PUSH1 0x40 MLOAD DUP1 SWAP2 SUB SWAP1 REVERT JUMPDEST PUSH0 PUSH1 0x40 MLOAD SWAP1 POP SWAP1 JUMP JUMPDEST PUSH0 DUP1 REVERT JUMPDEST PUSH0 DUP1 REVERT JUMPDEST PUSH0 PUSH20 0xFFFFFFFFFFFFFFFFFFFFFFFFFFFFFFFFFFFFFFFF DUP3 AND SWAP1 POP SWAP2 SWAP1 POP JUMP JUMPDEST PUSH0 PUSH2 0x933 DUP3 PUSH2 0x90A JUMP JUMPDEST SWAP1 POP SWAP2 SWAP1 POP JUMP JUMPDEST PUSH2 0x943 DUP2 PUSH2 0x929 JUMP JUMPDEST DUP2 EQ PUSH2 0x94D JUMPI PUSH0 DUP1 REVERT JUMPDEST POP JUMP JUMPDEST PUSH0 DUP2 CALLDATALOAD SWAP1 POP PUSH2 0x95E DUP2 PUSH2 0x93A JUMP JUMPDEST SWAP3 SWAP2 POP POP JUMP JUMPDEST PUSH0 DUP2 SWAP1 POP SWAP2 SWAP1 POP JUMP JUMPDEST PUSH2 0x976 DUP2 PUSH2 0x964 JUMP JUMPDEST DUP2 EQ PUSH2 0x980 JUMPI PUSH0 DUP1 REVERT JUMPDEST POP JUMP JUMPDEST PUSH0 DUP2 CALLDATALOAD SWAP1 POP PUSH2 0x991 DUP2 PUSH2 0x96D JUMP JUMPDEST SWAP3 SWAP2 POP POP JUMP JUMPDEST PUSH0 DUP2 ISZERO ISZERO SWAP1 POP SWAP2 SWAP1 POP JUMP JUMPDEST PUSH2 0x9AB DUP2 PUSH2 0x997 JUMP JUMPDEST DUP2 EQ PUSH2 0x9B5 JUMPI PUSH0 DUP1 REVERT JUMPDEST POP JUMP JUMPDEST PUSH0 DUP2 CALLDATALOAD SWAP1 POP PUSH2 0x9C6 DUP2 PUSH2 0x9A2 JUMP JUMPDEST SWAP3 SWAP2 POP POP JUMP JUMPDEST PUSH0 DUP1 PUSH0 PUSH1 0x60 DUP5 DUP7 SUB SLT ISZERO PUSH2 0x9E3 JUMPI PUSH2 0x9E2 PUSH2 0x902 JUMP JUMPDEST JUMPDEST PUSH0 PUSH2 0x9F0 DUP7 DUP3 DUP8 ADD PUSH2 0x950 JUMP JUMPDEST SWAP4 POP POP PUSH1 0x20 PUSH2 0xA01 DUP7 DUP3 DUP8 ADD PUSH2 0x983 JUMP JUMPDEST SWAP3 POP POP PUSH1 0x40 PUSH2 0xA12 DUP7 DUP3 DUP8 ADD PUSH2 0x9B8 JUMP JUMPDEST SWAP2 POP POP SWAP3 POP SWAP3 POP SWAP3 JUMP JUMPDEST PUSH0 PUSH4 0xFFFFFFFF DUP3 AND SWAP1 POP SWAP2 SWAP1 POP JUMP JUMPDEST PUSH2 0xA34 DUP2 PUSH2 0xA1C JUMP JUMPDEST DUP2 EQ PUSH2 0xA3E JUMPI PUSH0 DUP1 REVERT JUMPDEST POP JUMP JUMPDEST PUSH0 DUP2 CALLDATALOAD SWAP1 POP PUSH2 0xA4F DUP2 PUSH2 0xA2B JUMP JUMPDEST SWAP3 SWAP2 POP POP JUMP JUMPDEST PUSH0 DUP1 REVERT JUMPDEST PUSH0 DUP1 REVERT JUMPDEST PUSH0 PUSH1 0x1F NOT PUSH1 0x1F DUP4 ADD AND SWAP1 POP SWAP2 SWAP1 POP JUMP JUMPDEST PUSH32 0x4E487B7100000000000000000000000000000000000000000000000000000000 PUSH0 MSTORE PUSH1 0x41 PUSH1 0x4 MSTORE PUSH1 0x24 PUSH0 REVERT JUMPDEST PUSH2 0xAA3 DUP3 PUSH2 0xA5D JUMP JUMPDEST DUP2 ADD DUP2 DUP2 LT PUSH8 0xFFFFFFFFFFFFFFFF DUP3 GT OR ISZERO PUSH2 0xAC2 JUMPI PUSH2 0xAC1 PUSH2 0xA6D JUMP JUMPDEST JUMPDEST DUP1 PUSH1 0x40 MSTORE POP POP POP JUMP JUMPDEST PUSH0 PUSH2 0xAD4 PUSH2 0x8F9 JUMP JUMPDEST SWAP1 POP PUSH2 0xAE0 DUP3 DUP3 PUSH2 0xA9A JUMP JUMPDEST SWAP2 SWAP1 POP JUMP JUMPDEST PUSH0 PUSH8 0xFFFFFFFFFFFFFFFF DUP3 GT ISZERO PUSH2 0xAFF JUMPI PUSH2 0xAFE PUSH2 0xA6D JUMP JUMPDEST JUMPDEST PUSH2 0xB08 DUP3 PUSH2 0xA5D JUMP JUMPDEST SWAP1 POP PUSH1 0x20 DUP2 ADD SWAP1 POP SWAP2 SWAP1 POP JUMP JUMPDEST DUP3 DUP2 DUP4 CALLDATACOPY PUSH0 DUP4 DUP4 ADD MSTORE POP POP POP JUMP JUMPDEST PUSH0 PUSH2 0xB35 PUSH2 0xB30 DUP5 PUSH2 0xAE5 JUMP JUMPDEST PUSH2 0xACB JUMP JUMPDEST SWAP1 POP DUP3 DUP2 MSTORE PUSH1 0x20 DUP2 ADD DUP5 DUP5 DUP5 ADD GT ISZERO PUSH2 0xB51 JUMPI PUSH2 0xB50 PUSH2 0xA59 JUMP JUMPDEST JUMPDEST PUSH2 0xB5C DUP5 DUP3 DUP6 PUSH2 0xB15 JUMP JUMPDEST POP SWAP4 SWAP3 POP POP POP JUMP JUMPDEST PUSH0 DUP3 PUSH1 0x1F DUP4 ADD SLT PUSH2 0xB78 JUMPI PUSH2 0xB77 PUSH2 0xA55 JUMP JUMPDEST JUMPDEST DUP2 CALLDATALOAD PUSH2 0xB88 DUP5 DUP3 PUSH1 0x20 DUP7 ADD PUSH2 0xB23 JUMP JUMPDEST SWAP2 POP POP SWAP3 SWAP2 POP POP JUMP JUMPDEST PUSH0 DUP1 PUSH0 PUSH1 0x60 DUP5 DUP7 SUB SLT ISZERO PUSH2 0xBA8 JUMPI PUSH2 0xBA7 PUSH2 0x902 JUMP JUMPDEST JUMPDEST PUSH0 PUSH2 0xBB5 DUP7 DUP3 DUP8 ADD PUSH2 0x950 JUMP JUMPDEST SWAP4 POP POP PUSH1 0x20 PUSH2 0xBC6 DUP7 DUP3 DUP8 ADD PUSH2 0xA41 JUMP JUMPDEST SWAP3 POP POP PUSH1 0x40 DUP5 ADD CALLDATALOAD PUSH8 0xFFFFFFFFFFFFFFFF DUP2 GT ISZERO PUSH2 0xBE7 JUMPI PUSH2 0xBE6 PUSH2 0x906 JUMP JUMPDEST JUMPDEST PUSH2 0xBF3 DUP7 DUP3 DUP8 ADD PUSH2 0xB64 JUMP JUMPDEST SWAP2 POP POP SWAP3 POP SWAP3 POP SWAP3 JUMP JUMPDEST PUSH2 0xC06 DUP2 PUSH2 0x929 JUMP JUMPDEST DUP3 MSTORE POP POP JUMP JUMPDEST PUSH0 PUSH1 0x20 DUP3 ADD SWAP1 POP PUSH2 0xC1F PUSH0 DUP4 ADD DUP5 PUSH2 0xBFD JUMP JUMPDEST SWAP3 SWAP2 POP POP JUMP JUMPDEST PUSH0 DUP2 SWAP1 POP SWAP2 SWAP1 POP JUMP JUMPDEST PUSH0 PUSH2 0xC48 PUSH2 0xC43 PUSH2 0xC3E DUP5 PUSH2 0x90A JUMP JUMPDEST PUSH2 0xC25 JUMP JUMPDEST PUSH2 0x90A JUMP JUMPDEST SWAP1 POP SWAP2 SWAP1 POP JUMP JUMPDEST PUSH0 PUSH2 0xC59 DUP3 PUSH2 0xC2E JUMP JUMPDEST SWAP1 POP SWAP2 SWAP1 POP JUMP JUMPDEST PUSH0 PUSH2 0xC6A DUP3 PUSH2 0xC4F JUMP JUMPDEST SWAP1 POP SWAP2 SWAP1 POP JUMP JUMPDEST PUSH2 0xC7A DUP2 PUSH2 0xC60 JUMP JUMPDEST DUP3 MSTORE POP POP JUMP JUMPDEST PUSH0 PUSH1 0x20 DUP3 ADD SWAP1 POP PUSH2 0xC93 PUSH0 DUP4 ADD DUP5 PUSH2 0xC71 JUMP JUMPDEST SWAP3 SWAP2 POP POP JUMP JUMPDEST PUSH2 0xCA2 DUP2 PUSH2 0xA1C JUMP JUMPDEST DUP3 MSTORE POP POP JUMP JUMPDEST PUSH0 PUSH1 0x20 DUP3 ADD SWAP1 POP PUSH2 0xCBB PUSH0 DUP4 ADD DUP5 PUSH2 0xC99 JUMP JUMPDEST SWAP3 SWAP2 POP POP JUMP JUMPDEST PUSH0 PUSH2 0xCCB DUP3 PUSH2 0xC4F JUMP JUMPDEST SWAP1 POP SWAP2 SWAP1 POP JUMP JUMPDEST PUSH2 0xCDB DUP2 PUSH2 0xCC1 JUMP JUMPDEST DUP3 MSTORE POP POP JUMP JUMPDEST PUSH0 PUSH1 0x20 DUP3 ADD SWAP1 POP PUSH2 0xCF4 PUSH0 DUP4 ADD DUP5 PUSH2 0xCD2 JUMP JUMPDEST SWAP3 SWAP2 POP POP JUMP JUMPDEST PUSH2 0xD03 DUP2 PUSH2 0x964 JUMP JUMPDEST DUP3 MSTORE POP POP JUMP JUMPDEST PUSH0 PUSH1 0x40 DUP3 ADD SWAP1 POP PUSH2 0xD1C PUSH0 DUP4 ADD DUP6 PUSH2 0xBFD JUMP JUMPDEST PUSH2 0xD29 PUSH1 0x20 DUP4 ADD DUP5 PUSH2 0xCFA JUMP JUMPDEST SWAP4 SWAP3 POP POP POP JUMP JUMPDEST PUSH0 DUP3 DUP3 MSTORE PUSH1 0x20 DUP3 ADD SWAP1 POP SWAP3 SWAP2 POP POP JUMP JUMPDEST PUSH32 0x546F6B656E577261707065643A3A506F6C79676F6E427269646765426173653A PUSH0 DUP3 ADD MSTORE PUSH32 0x204E6F7420506F6C79676F6E5A6B45564D427269646765000000000000000000 PUSH1 0x20 DUP3 ADD MSTORE POP JUMP JUMPDEST PUSH0 PUSH2 0xD9A PUSH1 0x37 DUP4 PUSH2 0xD30 JUMP JUMPDEST SWAP2 POP PUSH2 0xDA5 DUP3 PUSH2 0xD40 JUMP JUMPDEST PUSH1 0x40 DUP3 ADD SWAP1 POP SWAP2 SWAP1 POP JUMP JUMPDEST PUSH0 PUSH1 0x20 DUP3 ADD SWAP1 POP DUP2 DUP2 SUB PUSH0 DUP4 ADD MSTORE PUSH2 0xDC7 DUP2 PUSH2 0xD8E JUMP JUMPDEST SWAP1 POP SWAP2 SWAP1 POP JUMP JUMPDEST PUSH32 0x546F6B656E577261707065643A3A506F6C79676F6E427269646765426173653A PUSH0 DUP3 ADD MSTORE PUSH32 0x204E6F7420636F756E7465727061727420636F6E747261637400000000000000 PUSH1 0x20 DUP3 ADD MSTORE POP JUMP JUMPDEST PUSH0 PUSH2 0xE28 PUSH1 0x39 DUP4 PUSH2 0xD30 JUMP JUMPDEST SWAP2 POP PUSH2 0xE33 DUP3 PUSH2 0xDCE JUMP JUMPDEST PUSH1 0x40 DUP3 ADD SWAP1 POP SWAP2 SWAP1 POP JUMP JUMPDEST PUSH0 PUSH1 0x20 DUP3 ADD SWAP1 POP DUP2 DUP2 SUB PUSH0 DUP4 ADD MSTORE PUSH2 0xE55 DUP2 PUSH2 0xE1C JUMP JUMPDEST SWAP1 POP SWAP2 SWAP1 POP JUMP JUMPDEST PUSH32 0x546F6B656E577261707065643A3A506F6C79676F6E427269646765426173653A PUSH0 DUP3 ADD MSTORE PUSH32 0x204E6F7420636F756E74657270617274206E6574776F726B0000000000000000 PUSH1 0x20 DUP3 ADD MSTORE POP JUMP JUMPDEST PUSH0 PUSH2 0xEB6 PUSH1 0x38 DUP4 PUSH2 0xD30 JUMP JUMPDEST SWAP2 POP PUSH2 0xEC1 DUP3 PUSH2 0xE5C JUMP JUMPDEST PUSH1 0x40 DUP3 ADD SWAP1 POP SWAP2 SWAP1 POP JUMP JUMPDEST PUSH0 PUSH1 0x20 DUP3 ADD SWAP1 POP DUP2 DUP2 SUB PUSH0 DUP4 ADD MSTORE PUSH2 0xEE3 DUP2 PUSH2 0xEAA JUMP JUMPDEST SWAP1 POP SWAP2 SWAP1 POP JUMP JUMPDEST PUSH2 0xEF3 DUP2 PUSH2 0x997 JUMP JUMPDEST DUP3 MSTORE POP POP JUMP JUMPDEST PUSH0 DUP2 MLOAD SWAP1 POP SWAP2 SWAP1 POP JUMP JUMPDEST PUSH0 DUP3 DUP3 MSTORE PUSH1 0x20 DUP3 ADD SWAP1 POP SWAP3 SWAP2 POP POP JUMP JUMPDEST PUSH0 JUMPDEST DUP4 DUP2 LT ISZERO PUSH2 0xF30 JUMPI DUP1 DUP3 ADD MLOAD DUP2 DUP5 ADD MSTORE PUSH1 0x20 DUP2 ADD SWAP1 POP PUSH2 0xF15 JUMP JUMPDEST PUSH0 DUP5 DUP5 ADD MSTORE POP POP POP POP JUMP JUMPDEST PUSH0 PUSH2 0xF45 DUP3 PUSH2 0xEF9 JUMP JUMPDEST PUSH2 0xF4F DUP2 DUP6 PUSH2 0xF03 JUMP JUMPDEST SWAP4 POP PUSH2 0xF5F DUP2 DUP6 PUSH1 0x20 DUP7 ADD PUSH2 0xF13 JUMP JUMPDEST PUSH2 0xF68 DUP2 PUSH2 0xA5D JUMP JUMPDEST DUP5 ADD SWAP2 POP POP SWAP3 SWAP2 POP POP JUMP JUMPDEST PUSH0 PUSH1 0x80 DUP3 ADD SWAP1 POP PUSH2 0xF86 PUSH0 DUP4 ADD DUP8 PUSH2 0xC99 JUMP JUMPDEST PUSH2 0xF93 PUSH1 0x20 DUP4 ADD DUP7 PUSH2 0xBFD JUMP JUMPDEST PUSH2 0xFA0 PUSH1 0x40 DUP4 ADD DUP6 PUSH2 0xEEA JUMP JUMPDEST DUP2 DUP2 SUB PUSH1 0x60 DUP4 ADD MSTORE PUSH2 0xFB2 DUP2 DUP5 PUSH2 0xF3B JUMP JUMPDEST SWAP1 POP SWAP6 SWAP5 POP POP POP POP POP JUMP JUMPDEST PUSH0 PUSH2 0xFC7 DUP3 PUSH2 0x90A JUMP JUMPDEST SWAP1 POP SWAP2 SWAP1 POP JUMP JUMPDEST PUSH2 0xFD7 DUP2 PUSH2 0xFBD JUMP JUMPDEST DUP2 EQ PUSH2 0xFE1 JUMPI PUSH0 DUP1 REVERT JUMPDEST POP JUMP JUMPDEST PUSH0 DUP2 MLOAD SWAP1 POP PUSH2 0xFF2 DUP2 PUSH2 0xFCE JUMP JUMPDEST SWAP3 SWAP2 POP POP JUMP JUMPDEST PUSH0 DUP2 MLOAD SWAP1 POP PUSH2 0x1006 DUP2 PUSH2 0x96D JUMP JUMPDEST SWAP3 SWAP2 POP POP JUMP JUMPDEST PUSH0 DUP1 PUSH1 0x40 DUP4 DUP6 SUB SLT ISZERO PUSH2 0x1022 JUMPI PUSH2 0x1021 PUSH2 0x902 JUMP JUMPDEST JUMPDEST PUSH0 PUSH2 0x102F DUP6 DUP3 DUP7 ADD PUSH2 0xFE4 JUMP JUMPDEST SWAP3 POP POP PUSH1 0x20 PUSH2 0x1040 DUP6 DUP3 DUP7 ADD PUSH2 0xFF8 JUMP JUMPDEST SWAP2 POP POP SWAP3 POP SWAP3 SWAP1 POP JUMP JUMPDEST PUSH0 PUSH1 0x60 DUP3 ADD SWAP1 POP PUSH2 0x105D PUSH0 DUP4 ADD DUP7 PUSH2 0xBFD JUMP JUMPDEST PUSH2 0x106A PUSH1 0x20 DUP4 ADD DUP6 PUSH2 0xBFD JUMP JUMPDEST PUSH2 0x1077 PUSH1 0x40 DUP4 ADD DUP5 PUSH2 0xCFA JUMP JUMPDEST SWAP5 SWAP4 POP POP POP POP JUMP JUMPDEST PUSH0 DUP2 MLOAD SWAP1 POP PUSH2 0x108D DUP2 PUSH2 0x9A2 JUMP JUMPDEST SWAP3 SWAP2 POP POP JUMP JUMPDEST PUSH0 PUSH1 0x20 DUP3 DUP5 SUB SLT ISZERO PUSH2 0x10A8 JUMPI PUSH2 0x10A7 PUSH2 0x902 JUMP JUMPDEST JUMPDEST PUSH0 PUSH2 0x10B5 DUP5 DUP3 DUP6 ADD PUSH2 0x107F JUMP JUMPDEST SWAP2 POP POP SWAP3 SWAP2 POP POP JUMP JUMPDEST PUSH0 DUP2 SWAP1 POP SWAP3 SWAP2 POP POP JUMP JUMPDEST PUSH0 PUSH2 0x10D2 DUP3 PUSH2 0xEF9 JUMP JUMPDEST PUSH2 0x10DC DUP2 DUP6 PUSH2 0x10BE JUMP JUMPDEST SWAP4 POP PUSH2 0x10EC DUP2 DUP6 PUSH1 0x20 DUP7 ADD PUSH2 0xF13 JUMP JUMPDEST DUP1 DUP5 ADD SWAP2 POP POP SWAP3 SWAP2 POP POP JUMP JUMPDEST PUSH0 PUSH2 0x1103 DUP3 DUP5 PUSH2 0x10C8 JUMP JUMPDEST SWAP2 POP DUP2 SWAP1 POP SWAP3 SWAP2 POP POP JUMP INVALID LOG2 PUSH5 0x6970667358 0x22 SLT KECCAK256 0xD 0xD7 0xB2 0xC3 0xC4 DUP9 POP 0xB8 0x4D BLOCKHASH SWAP1 0xF7 SAR MLOAD NOT 0xFB MSIZE CALLDATACOPY 0xE9 0x23 0xD4 DUP10 CALLDATALOAD PUSH15 0x3EDD5BE4FAEB924864736F6C634300 ADDMOD EQ STOP CALLER "
				},
				"gasEstimates": {
					"creation": {
						"codeDepositCost": "884000",
						"executionCost": "infinite",
						"totalCost": "infinite"
					},
					"external": {
						"bridgeToken(address,uint256,bool)": "infinite",
						"counterpartContract()": "infinite",
						"counterpartNetwork()": "infinite",
						"onMessageReceived(address,uint32,bytes)": "infinite",
						"polygonZkEVMBridge()": "infinite",
						"token()": "infinite"
					},
					"internal": {
						"_receiveTokens(uint256)": "infinite",
						"_transferTokens(address,uint256)": "infinite"
					}
				},
				"methodIdentifiers": {
					"bridgeToken(address,uint256,bool)": "03bdcfc9",
					"counterpartContract()": "40cf5e81",
					"counterpartNetwork()": "b0138132",
					"onMessageReceived(address,uint32,bytes)": "1806b5f2",
					"polygonZkEVMBridge()": "5d43792c",
					"token()": "fc0c546a"
				}
			},
			"storageLayout": {
				"storage": [],
				"types": null
			},
			"userdoc": {
				"kind": "user",
				"methods": {
					"bridgeToken(address,uint256,bool)": {
						"notice": "Send a message to the bridge that contains the destination address and the token amount The parent contract should implement the receive token protocol and afterwards call this function"
					},
					"onMessageReceived(address,uint32,bytes)": {
						"notice": "Function triggered by the bridge once a message is received by the other network"
					}
				},
				"notice": "ERC20BridgeNativeChain is an example contract to use the message layer of the PolygonZkEVMBridge to bridge custom ERC20 This contract will be deployed on the native erc20 network (usually will be mainnet)",
				"version": 1
			}
		}
	}
}